:020000040000fa
:080000000002040000000000f2
:020000040000fa
:040008007003000081
:020000040000fa
:04000c00700300007d
:020000040000fa
:040010007003000079
:020000040000fa
:040014007003000075
:020000040000fa
:040018007003000071
:020000040000fa
:04001c00700300006d
:020000040000fa
:040020007003000069
:020000040000fa
:040024007003000065
:020000040000fa
:040028007003000061
:020000040000fa
:04002c00700300005d
:020000040000fa
:040030007003000059
:020000040000fa
:040034007003000055
:020000040000fa
:040038007003000051
:020000040000fa
:04003c00700300004d
:020000040000fa
:040040007003000049
:020000040000fa
:040044007003000045
:020000040000fa
:040048007003000041
:020000040000fa
:04004c00700300003d
:020000040000fa
:040050007003000039
:020000040000fa
:040054004c03000059
:020000040000fa
:040058007003000031
:020000040000fa
:04005c00700300002d
:020000040000fa
:040060007003000029
:020000040000fa
:040064007003000025
:020000040000fa
:040068007003000021
:020000040000fa
:04006c00700300001d
:020000040000fa
:040070007003000019
:020000040000fa
:040074007003000015
:020000040000fa
:040078001803000069
:020000040000fa
:04007c00700300000d
:020000040000fa
:040080007003000009
:020000040000fa
:040084007003000005
:020000040000fa
:040088007003000001
:020000040000fa
:04008c0070030000fd
:020000040000fa
:0400900070030000f9
:020000040000fa
:04009400fa0200006c
:020000040000fa
:0400980070030000f1
:020000040000fa
:04009c0070030000ed
:020000040000fa
:0400a00070030000e9
:020000040000fa
:0400a40070030000e5
:020000040000fa
:0400a80070030000e1
:020000040000fa
:0400ac0070030000dd
:020000040000fa
:0400b00070030000d9
:020000040000fa
:0400b40070030000d5
:020000040000fa
:0400b80070030000d1
:020000040000fa
:0400bc0070030000cd
:020000040000fa
:0400c00070030000c9
:020000040000fa
:0400c40070030000c5
:020000040000fa
:0400c80070030000c1
:020000040000fa
:0400cc0070030000bd
:020000040000fa
:0400d00070030000b9
:020000040000fa
:0400d40070030000b5
:020000040000fa
:0400d80070030000b1
:020000040000fa
:0400dc0070030000ad
:020000040000fa
:0400e00070030000a9
:020000040000fa
:0400e40070030000a5
:020000040000fa
:0400e80070030000a1
:020000040000fa
:0400ec00700300009d
:020000040000fa
:0400f0007003000099
:020000040000fa
:0400f4007003000095
:020000040000fa
:0400f8007003000091
:020000040000fa
:0400fc00700300008d
:020000040000fa
:040100007003000088
:020000040000fa
:040104007003000084
:020000040000fa
:040108007003000080
:020000040000fa
:04010c00700300007c
:020000040000fa
:040110007003000078
:020000040000fa
:040114007003000074
:020000040000fa
:040118007003000070
:020000040000fa
:04011c00700300006c
:020000040000fa
:040120007003000068
:020000040000fa
:040124007003000064
:020000040000fa
:040128007003000060
:020000040000fa
:04012c00700300005c
:020000040000fa
:040130007003000058
:020000040000fa
:040134007003000054
:020000040000fa
:040138007003000050
:020000040000fa
:04013c00700300004c
:020000040000fa
:040140007003000048
:020000040000fa
:040144007003000044
:020000040000fa
:040148007003000040
:020000040000fa
:04014c00700300003c
:020000040000fa
:040150007003000038
:020000040000fa
:040154007003000034
:020000040000fa
:040158007003000030
:020000040000fa
:04015c00700300002c
:020000040000fa
:040160007003000028
:020000040000fa
:040164007003000024
:020000040000fa
:040168007003000020
:020000040000fa
:04016c00700300001c
:020000040000fa
:040170007003000018
:020000040000fa
:040174007003000014
:020000040000fa
:040178007003000010
:020000040000fa
:04017c00700300000c
:020000040000fa
:040180007003000008
:020000040000fa
:040184007003000004
:020000040000fa
:040188007003000000
:020000040000fa
:04018c0070030000fc
:020000040000fa
:0401900070030000f8
:020000040000fa
:0401940070030000f4
:020000040000fa
:0401980070030000f0
:020000040000fa
:04019c0070030000ec
:020000040000fa
:0401a00070030000e8
:020000040000fa
:0401a40070030000e4
:020000040000fa
:0401a80070030000e0
:020000040000fa
:0401ac0070030000dc
:020000040000fa
:0401b00070030000d8
:020000040000fa
:0401b40070030000d4
:020000040000fa
:0401b80070030000d0
:020000040000fa
:0401bc0070030000cc
:020000040000fa
:0401c00070030000c8
:020000040000fa
:0401c40070030000c4
:020000040000fa
:0401c80070030000c0
:020000040000fa
:0401cc0070030000bc
:020000040000fa
:0401d00070030000b8
:020000040000fa
:0401d40070030000b4
:020000040000fa
:0401d80070030000b0
:020000040000fa
:0401dc0070030000ac
:020000040000fa
:0401e00070030000a8
:020000040000fa
:0401e40070030000a4
:020000040000fa
:0401e80070030000a0
:020000040000fa
:0401ec00700300009c
:020000040000fa
:0401f0007003000098
:020000040000fa
:0401f4007003000094
:020000040000fa
:0401f8007003000090
:020000040000fa
:0401fc00700300008c
:020000040000fa
:040200007003000087
:020000040000fa
:040204007003000083
:020000040000fa
:04020800700300007f
:020000040000fa
:04020c00700300007b
:020000040000fa
:040210007003000077
:020000040000fa
:040214007003000073
:020000040000fa
:04021800700300006f
:020000040000fa
:04021c00700300006b
:020000040000fa
:040220007003000067
:020000040000fa
:040224007003000063
:020000040000fa
:04022800700300005f
:020000040000fa
:04022c00700300005b
:020000040000fa
:040230007003000057
:020000040000fa
:040234007003000053
:020000040000fa
:04023800700300004f
:020000040000fa
:04023c00700300004b
:020000040000fa
:040240007003000047
:020000040000fa
:040244007003000043
:020000040000fa
:04024800700300003f
:020000040000fa
:04024c00700300003b
:020000040000fa
:040250007003000037
:020000040000fa
:040254007003000033
:020000040000fa
:04025800700300002f
:020000040000fa
:04025c00700300002b
:020000040000fa
:040260007003000027
:020000040000fa
:040264007003000023
:020000040000fa
:10040000cf0121000eff27000e0188000000000030
:10041000000020000000e000020032000001200087
:100420002002880014000700af0007000000e00071
:1004300003003a00e0db2100010020000200370049
:100440000000200001002000810f70000100320038
:100450000f000700000020000000e0000200320052
:100460000000020000000000ee1c0200000000007e
:100470000040da000000fe00200020000000e00044
:1004800002003200100020009001880000000600e9
:10049000a1028800800478000000eb001f003700f4
:1004a000e284440054a0b4009905ba00e2844400f8
:1004b00054a0b4009906ba00e284440054a0b400e9
:1004c0000006eb00476fde00fd07b200ae018800ba
:1004d000636ce10003003a000ad801000000eb0061
:1004e0000e003700606ce10008003a00004deb00a0
:1004f0000a05e800020039003420ec000af0a000f0
:100500008b05e900f9ff3e00040037006168e10057
:10051000010032000086eb000b00070019c7ba008b
:100520000e04e0001905ba0003003a000a00e000da
:10053000dbff3a0000000600fe07b200ae028800b2
:100540008a047800f5ff37000cd0a300e20f4d00bd
:100550001c003b0089027800354dba000a05e8000e
:10056000020039003420ec000af0a0008b05e900fd
:100570000f003200254dba000a05e80002003900dc
:100580003420ec000af0a0008b05e90008003200de
:100590000c00e0000600320015cdba000a05e800a4
:1005a000020039003420ec000af0a0008b05e900bd
:1005b0008984e80054a0b4000b00e000e2ff3a0098
:1005c000000006009902ba00055d78008b05e9007d
:1005d000f7ff3200c82ade00055d78008b05e900d0
:1005e000f3ff32000c00e000f1ff320019ddba0029
:1005f000eeff37003200f8003400f800881f780062
:1006000018002000a80188001800200008d0fe0073
:100610004f0478000000fa000368a9002368a900cd
:100620000080fa003400f9003200f90000400600b2
:100630003600f800809fbe00829fbe00849fbe00ef
:10064000869fbe003200f8003400f8001000200041
:10065000a00188001000200000d0fe000000fa0079
:100660002288a9002368a800410120004000200042
:10067000f30807000080fa003400f9003200f900a6
:100680004f03be004f02be004f01be004f00be0030
:100690003600f90000400600801f78003200f800a4
:1006a0003400f80010002000a00188001000200095
:1006b00000d0fe000200fa0030118000004f7800e8
:1006c0001e00fb00201188000168a9000080fa00cc
:1006d0003400f9003200f9004f00780000400600b5
:1006e0000040da000000fe0000000500839f680063
:1006f0000100e00002003d0060001000e0801800f2
:100700000300e00002003d0060011100e0811900db
:10071000400007004f00e00002003b0060001000b6
:10072000e080180000000600f4ff2f009e03370051
:100730000001be00220007000470a70003f0a10022
:100740006509b100160032000d0035006828e1008f
:1007500006003500f0ff2f00f1ff27000300e00046
:1007600013003b00010028000000050000004000cd
:10077000818048008502e900fcff3a00080037004c
:10078000f88f420002003c008000eb0000000500f2
:100790008100d1000080d3008502e800fcff3a0010
:1007a0000300e00002003b0060001000e080180041
:1007b000000006004f89de008201780095033700b3
:1007c000c70ade00f107b200f50fb20008003200e0
:1007d000e1cf4200020032000170a00024000500b9
:1007e000810f70000100320004080500440005007c
:1007f000810f700002003a00140005008502e90034
:100800000000400081c04800fcff3b000170a000d8
:10081000240005006022b800060220000000d0007d
:100820008180d2000482d2008582d2000000a00024
:100830000202520083825a00030031000202420089
:1008400083824a000000a1000603e900f3ff3a009a
:100850000000060007f82700078361000638e10062
:1008600004003a00f70720008783610087037100c6
:1008700001003a0003f0a200889fbe008a9fbe00dc
:100880008c9fbe00470ade000480a100c71ade006c
:100890000580a100070028000785600087856100aa
:1008a000f70f20000720e1009e0032000728e1003a
:1008b0009c003200010678000400e000b400320021
:1008c000f7072000878060000170a0000500e000ad
:1008d000c0003200f7072000878161000370a0008c
:1008e000050652000f003a000b50e1000b003200e9
:1008f0000308e10002003a000200e1007e0032003d
:100900000204500083845800040031000001fd00ff
:100910008101fd008402fd008a05fd006044b800ed
:10092000210037000520e10005003d000001fd0029
:100930008101fd008402fd008a05fd0005065200cc
:100940007a60e100050035000170a1004722dd005a
:10095000848070008a807000630037006044b800b3
:10096000ef02660007ff2f00070666000500e000a3
:1009700006003400f08312008714dd000511de004c
:10098000071bdd00060171008519de007060e100c3
:10099000050035000904780082047800030178001e
:1009a0008001eb00700656000b50e10003003a0096
:1009b00002004000838048000400370060041400f7
:1009c000e0841c0002005800838058000188a300c6
:1009d000060032008100d1000080d3008984d3005a
:1009e0000884d3000402e800270037000178a30040
:1009f00025003a000100e000030032008186cf00ac
:100a0000698656000a0037008c0020000000e000d4
:100a100004003a0009007800880478000004eb0024
:100a2000700252008086cf000d0646000c06e900d9
:100a30007060e10006003500800078000900780051
:100a4000880478000004eb00700656007002520023
:100a50000c00e0000c0034008c08dd00f0031600f0
:100a60000703de00868070000c00dd00074bde000f
:100a7000060070008c4cdd000743de0086847400a5
:100a80000c44dd000c0252006120e1002000350022
:100a9000610160000700280087816400f7ff2700dc
:100aa00087836400070374000300e000060032003f
:100ab00082037300040032000000e800e080480078
:100ac0000188a3000e003a00f70f20000720e10084
:100ad0004a003d000170a1004722dd008100720044
:100ae0008a8070000000be004f06be004f05be00a9
:100af0004f04be00000006006000b800faff370097
:100b00008100d1000080d3000402e800eeff37002e
:100b10000401780089017400a10107008a80700037
:100b2000f1ff3700f7010700070278000001fd0020
:100b30008101fd00f3010700870278008503720040
:100b40000778a300040032000001fd008101fd00d0
:100b500006020700e4ff3700850362000768a30070
:100b6000080032000b50e10003003200f0ff2f00bc
:100b7000f1ff2700dcff37000001fd008101fd00cf
:100b8000d9ff37000468a300d7ff3200faff37000f
:100b9000f8ff2700888360000b003a000000e000a7
:100ba00009003a008303640082837300020032006c
:100bb0000200be00ccff37000b50e100ceff3a0030
:100bc0000200be00c8ff370014002000810064004e
:100bd0003eff3700f8ff27008883610004003a00d9
:100be0000200e00002003a008c007800beff3700ef
:100bf000150020008301640039ff370001f8270049
:100c00000000200081007500b7ff3700889fbe00fc
:100c10008a9fbe008c9fbe001b0020000202be0007
:100c20000586680006002800060666004709de0003
:100c3000f20fb200820032000243e800800032006e
:100c4000c729de00f30fb2007d0032000343e80045
:100c50007b003200f107b2000170a000f507b2007e
:100c60000570a000c708dd004903de008680700023
:100c70004700dd00c72add004923de0086827200be
:100c80004722dd000305510004035000858358000e
:100c90000300310000004000818048000a05e9009f
:100ca0008c1f78008a9fbe00040050008580580089
:100cb0000402420085824a00000040008180480012
:100cc0000005eb000004be006033b8000406be005f
:100cd0000d48e10056003100110009004dccd8004c
:100ce0000c01b8000d02b8008481410060824a0006
:100cf0008283530003045c0084845c0060055d0013
:100d00000a00e00025003a00800578000d40e1006f
:100d100049003100880078000700780011000900c0
:100d20004d88d8000c01b8000d02b8008481410044
:100d300060824a006003110083835b0004045c004e
:100d4000e0845c000900e00021003a004f01be0091
:100d50000300e0002b003200e3016000070673008f
:100d60008c81710001003200640070004200de00de
:100d70004e5edd000c007000c258de0001e0a000f5
:100d800083010700cf017800818071004f06be000b
:100d90004f05be004f04be00000006008c834300d8
:100da0000d044c00e0844c0060054d000000e9009b
:100db0000a00e000d4ff32008c8343000d044c0095
:100dc000e0844c0060054d000000e900ceff3700d4
:100dd0000c0343008d834b0060044c00e0844c0006
:100de0000000e9000900e000d8ff32000c034300d6
:100df0008d834b0060044c00e0844c000000e9004f
:100e0000d2ff37004200de004e5edd000c007000b5
:100e1000c258de0001e0a000cf0178000300e0002e
:100e2000daff320060001000e0801800d7ff3700c2
:100e3000f0ff2f00aaff3700f0ff2f00b9ff3700a7
:100e40000404be002f010700870678000004fd009f
:100e50008104fd002b010700078366000678a300cc
:100e6000030032000960a7000800be002c00370014
:100e70000d78a300020032000800be0028003700f1
:100e80000778a30026003a0001f0a10009f0a100b4
:100e90000668a30003003200f1ff2700f0ff2f00d7
:100ea000baff37000d68a300030032000800be003f
:100eb0008c807000b5ff37000768a30007003a0078
:100ec0000648a30003003200f1ff2700f0ff2f00c7
:100ed000aeff37000d48a300030032006000b800e9
:100ee0008c807000a9ff37000748a300040032007f
:100ef00001f82700000020008c807000a3ff37005d
:100f0000760107000004fd008104fd000205780061
:100f1000720107000802be008a01780059ff3700fd
:100f20000160a000120220000280880097ff3700b5
:100f30000100e000120032000500e0001000320065
:100f4000889fbe008a9fbe008c9fbe000006eb00fb
:100f500001f8a3000300320060001000e0801800d8
:100f60000cf0a00005f8a30003003200600212009c
:100f7000e0821a000cf0a2008005eb0041ff370070
:100f80006000b80002000500038368000700280025
:100f900007036300470ade000480a100c71ade00d1
:100fa0000580a100f70f20000720e1004200320079
:100fb0000728e10040003200889fbe008a9fbe00e3
:100fc0008c1f7800f107b200f307b2000400e000c4
:100fd000640032000170a0000500e00068003200eb
:100fe0000370a00085054200eb07b1000204b800c1
:100ff0000302b8008484440060854a00020ab800f5
:10100000848444000a854a00030ab80004054500a8
:10101000040033000804d0008984d2000a85d2007d
:101020008b05e9006158e1003d0035000210200009
:10103000090161000308200089816100f707200091
:101040008783640008867300c84cde00c853dd0047
:10105000878474004855de000300e000060032007b
:1010600082037600040032008904e80060054d0028
:101070000a88a3000c003a00f70f20000758e1008f
:1010800044003d000a70a100c75ddd000a857500bf
:101090008a007300090078004f0678004f05be00f3
:1010a0004f04be00000006000a05d1008984d30069
:1010b0008b05e800f0ff3700881f780006047800f1
:1010c00090000700070278000001fd008101fd008b
:1010d0008c00070087027800850372000778a30060
:1010e000050032000001fd008101fd009f000700a6
:1010f0004f04780000000600850372000748a30033
:1011000003003200f0ff2f00f1ff2700f8ff370047
:101110000000200001f8270088807000f4ff3700ed
:10112000880178004848dd00808171004848de0071
:10113000c850dd0001007000c850de0006047800d1
:101140000b0178001600070088807000d2ff37007e
:101150000500e00005003200170020003a000700fb
:101160009dff370081037000f9ff3a008600780088
:101170004f0678004f05be004f04be00000005007a
:1011800083037100f9ff3200270020002e000700c2
:1011900094ff370001f8270086807000f4ff3700c5
:1011a0000100e00026003200610111007810e1002a
:1011b00023003c006022b8007010e10004003500fc
:1011c00080027800010078008000eb00700151007f
:1011d0000200e0000900340070031100062add005f
:1011e000822ade008603dd00878272000200de00b4
:1011f000860bdd00070070008208de00848171002c
:10120000f4ff27000482620084817100040028003a
:10121000848262006102600005f0a6000000060002
:1012200004827100070032000000e800e0804800fe
:10123000000006000002be006000b800efff3700ab
:101240006000b80000000600889fbe000004eb00ac
:101250006138e10016003a000100e00008003a00a1
:10126000c800de004800dd00880020000100e0002a
:1012700003003a00c800de004800dd0068044400b6
:101280008184cf00e9845400060034008908dd0021
:10129000f08314008703de00878070000900dd0002
:1012a00009044400610214004f04be00000006005f
:1012b0000300e00008003a00c811de004811dd001c
:1012c000880020000300e00003003a00c811de009f
:1012d0004811dd00680444008384cf00e984540091
:1012e000060034008919dd00f08314008713de0046
:1012f000878171000911dd0009044400e102140036
:10130000e9ff37002700200001f0a70017002000a8
:10131000470bde00f60fb200040032000643e8007f
:101320000a0032004702b300000006000103780003
:10133000f607b2000603700002003a000703b3008c
:10134000000006008702b3000000060001037800d9
:10135000f607b20006037000020032000770a0001a
:10136000000006000760a000000006000478a3004b
:10137000040032000578a300030032000168a300d6
:1013800001003a000200be000160a000000006005b
:1013900081017000270032008002eb0001f8a300f9
:1013a0000300320060001000e080180015002000eb
:1013b000f40720000202420020003400f70320005e
:1013c0008703600006042000000363000208200079
:1013d000000161004700de00c909dd0000807100e6
:1013e000c708de000600e000080032008703710035
:1013f000060032001000b0000180b0000188a30098
:1014000002003200c108de000402e800f107b20069
:10141000f30f20000320e10003003d004722dd0020
:10142000810072002900370001f827000000eb005e
:10143000260037006000b8000000060068021200b5
:101440007f20e100020034006000b8001f00370078
:101450006011b8007020e1000400350080017800c0
:10146000010078008000eb00700252000400e000f0
:1014700009003400f00312000719dd008419de00b2
:101480000703dd00868171000400de00070bdd002c
:10149000060070008408de00f7ff270083836300e6
:1014a0008703710006002800030363000700320071
:1014b0000700e00003003a00610160000281730050
:1014c000020032001000b0000180b0000500a6004c
:1014d0000000060001f0a000000006004f0ade0038
:1014e0004709de00f107b200f20fb2000b00320034
:1014f000f207b1000170a000c708dd00c901de00dd
:10150000838070004700dd000400a6000000060094
:1015100060001000e080180000000600810f7000dd
:1015200001003a00000006008182cf000500e000c3
:1015300010003e008082cf00ee8242007028e10061
:101540000400390007003e00800078000000eb0036
:101550000e003700708312008600de000500dd00fb
:101560000a003700708352008600dd000000eb00a7
:1015700006003700e28252008508dd007083120009
:101580000603de00868070000500dd007507b000f0
:101590000501ea000400a60000000600600010003b
:1015a000e080180000000600889fbe008a9fbe00f1
:1015b000841f78007c0007004f0078001100330082
:1015c000f0ff2f00838f6c0006003b0004056500d0
:1015d0000a00a7000800370009f0a600100020004c
:1015e00008003700820f5400838f5c00030039002d
:1015f0001000200001003e000000200009f0a700bc
:101600000000ea004f05be004f04be000000e000ed
:1016100000000600881f7800030478000300e00043
:1016200007003d0060001000e08018006001190014
:10163000e081190002003b0001f02d00030037009b
:101640000400070008f0a70001f0a0004f04780094
:1016500000000600889fbe008a9fbe0000827000c6
:101660000402710004827100260032000004be00f2
:101670000200be006011b8006b0920009502200036
:101680000182cf000a0039000541b1000082cf007d
:10169000070039000541b1000982cf00040039007c
:1016a0000541b1000882cf00010039000541b100b9
:1016b00005425200120032000a003b008281710094
:1016c000610164008100d1000080d3008984d300cf
:1016d0000884d3008b05e8000442e800f7ff3a00d5
:1016e000070037000804440089844c0000004800cb
:1016f000818048008b05e9000442e900f9ff3a00c7
:10170000030007004f05be004f04be0000000600a6
:1017100081002000618055000b003d000b0020007f
:1017200061fe2f000100e1001d0034008281710084
:10173000610164008904d1000884d3000000e8003e
:10174000faff3a007100200061006400030070009d
:10175000020060000900320061044400e0844c0093
:101760000988a500050032008b05e8006808e10043
:1017700002003a008904d1000884d300f20f20004f
:101780000258e10005003d00c75ddd00f907b20029
:101790008980750008007800000006000bf827001b
:1017a0008b007800000005000004be0004fc070068
:1017b0000003be000405be000200be0000fc0700de
:1017c000844f7500000006004f02b000889fbe00e5
:1017d0008a9fbe008c9fbe008e1f78000005be0051
:1017e0000204be00b2af9f00c3af9f00b2b79f001c
:1017f000c3b79f00cfae97000df0a100020678009e
:10180000e00f5600e08f5e00c3033200faaf9f0086
:101810008bb79f000000200001f82300800f5500c7
:10182000818f5d00bc0332008fb2970005f0a100ec
:101830007faa970094b79f00a5b79f0000002000e3
:1018400001f82700800f5200818f5a0003003c00ee
:10185000800f5600818f5e00040034000a01be0034
:101860000800be0004fc0700b20337006033b80074
:101870007fa997008fb19700e00f5100e08f5900ca
:1018800029003d002600200007002000f0ff2f0067
:10189000f1b72400800f5600818f5e0022003c00cb
:1018a0006033b800f0ff2f00f1f72300800f5600df
:1018b000818f5e003300340047e8de00cfe8de00b1
:1018c000f007b1000180b100770110000c00be00ec
:1018d000820178008301e900030033008180d10098
:1018e0000080d300fbff37000003be000207780032
:1018f0000e07e900030033000603430087834b0013
:10190000fbff37000601be006033b8008c0f5100aa
:101910008d8f59001b003a006103600062031300c1
:10192000e0831b00170037000000200001f82700ab
:10193000800f5600818f5e0012003a0000002000e8
:1019400001f82300800f5200818f5a007203320089
:10195000060034003fb09700cfb09700e00f500072
:10196000e08f580074033d006e0337003fb19700cd
:10197000cfb19700e00f5100e08f590069033d009f
:10198000690037000000200001f82300800f560096
:10199000818f5e0009003a003fb29700cfb29700f6
:1019a000e00f5200e08f5a0060033d000a01be00c4
:1019b0000000200001f8230055003700000020003f
:1019c000010024003fb19700cfb19700800f510074
:1019d000818f590003003a000a01be000a00be00d0
:1019e0004b0337000000200001f023003fb19700b7
:1019f000cfb19700800f5100818f590008003a0045
:101a00007fa897008fb09700e00f5000e08f58003c
:101a1000030035000a00be007803070045033700c5
:101a20000a00be00f4b79f0085bf9f00d6b79f0095
:101a3000e7b79f00fb0307000200200003f8270020
:101a40007fb297008fba97005fb39700efb397000c
:101a5000820f5200838f5a0008003200e00f5200bc
:101a6000e08f5a00050032000200200003f8230036
:101a7000820f5200838f5a002d003a003fb1970029
:101a8000cfb19700e00f5100e08f59000c003d00ee
:101a90000001be000000200001f82300f4b79f0001
:101aa00085bf9f00d6b79f00e7b79f0057fc070090
:101ab0007fb297008fba97005fb39700efb397009c
:101ac0007fa997008fb19700e00f5100e08f590078
:101ad00018033d000200200003082c00040241000e
:101ae000858249000402730085827300e00f520072
:101af000e08f5a0008003a0012022000d2808800cd
:101b00000001be000200be0052fb07000001be0043
:101b10003efc070007033700e10f5300e08f5b0036
:101b200004033a000004be0009f0a20002033700db
:101b30007fa997008fb19700e00f5100e08f590007
:101b40000d003d00e00f5300e08f5b0004003a0001
:101b500010022000d08088000a01be00e9ff370093
:101b6000e10f5300e08f5b00080032000600200008
:101b700007f82300070037000200200003f82300c5
:101b8000f2af9f0083b79f000400370006002000db
:101b900007f82b00f6af9f0087b79f0002002000d8
:101ba00003d02400820f5600838f5e00560034005d
:101bb00072ff2f00f3f72300820f5200838f5a0029
:101bc00006003c003fb09700cfb09700e00f5000f8
:101bd000e08f580007023d00e50137007200200049
:101be00003f82300820f5200838f5a00060034004e
:101bf0003fb19700cfb19700e00f5100e08f59003f
:101c0000db013c00fb0137000200200003f8230049
:101c100010fb07000005be0002a02a0083fb230082
:101c2000d9fc070090b79f00a1b79f0002572a0078
:101c3000c36e23000a00be00d3fc07000002be00f2
:101c40000a01be000a00be00f4b79f0085bf9f00d6
:101c5000cdfc07000006be000200200003e82300c0
:101c60000a00be00c8fc07000001be00b0aa2a009e
:101c7000a1ea2300f7fa07000001be000a00be0037
:101c8000c1fc07000001be000000200001f023009d
:101c9000f0fa07000001be000c00be00bafc07000d
:101ca000b2a32a0083fb2300b7fc07000001be009b
:101cb0007fb297008fba97000400be00e5fa0700d4
:101cc0000005be000001be001fb09700afb0970036
:101cd000e9fa07000001be008300780004002f002d
:101ce000020062000003be00b6b79f00c7b79f00a6
:101cf0001fb19700afb19700d6fa07000001be00f0
:101d00000a00be00590137006011b800f6ff2f002d
:101d1000f7072000860f5200878f5a0007003c000b
:101d20000200200003b8240097fc070090b79f0032
:101d3000a1b79f0082fe2f00f3ff2f00f207b10032
:101d40000380b1002fb2970047a0de008402780024
:101d5000cfa8de00020340008383480096af9f00b7
:101d6000a7af9f0085007800f107b2001fb0970071
:101d70000200200003f8230002027000838270003a
:101d800094b79f00a5b79f006033b800d6af9f00ff
:101d9000e7af9f0012472c00c3012000820f5000c4
:101da000838f58001a003400120020000300200026
:101db000d2af9f00e3af9f00623d2b00d305200010
:101dc000820f5000838f5800110034001faa970023
:101dd000afaa970061024200e0824a0094af9f00e0
:101de000a5af9f000000200001f82f001fb397004f
:101df000afb39700060340008783480096b79f0063
:101e0000a7b79f006000b800d0af9f00e1af9f0070
:101e1000dfa89700c208dd0081af9f0020002100ed
:101e20000100400010057800900590000a01be00f6
:101e30001fb09700afb0970086fa07000006be00fb
:101e40000a01be001fb09700afb097008afa0700e2
:101e50000001be000000200001f823006bfb07001a
:101e60000002be000001be000c00be00f4b79f00df
:101e700085bf9f0044fc07000003be000e002f003a
:101e800081017800c3b79f0000016700b2b79f00cf
:101e90005fa89700efa89700c500dd0000002000b4
:101ea000d0af9f00e1af9f000000200001042000a0
:101eb0005fa99700efa997000201400083814800c5
:101ec000d2af9f00e3af9f001fb09700afb0970065
:101ed0008181d1000081d3008300780001d0a1006e
:101ee0000200670001d0a0005fa99700efa997004a
:101ef0000201400083814800d2af9f00e3af9f0002
:101f00005fa99700efa997003fb09700cfb0970067
:101f1000d6b79f00e7b79f001bfc07000001be007b
:101f20000c00be004bfa07000006be000a01be000e
:101f30005fa89700efa8970046fa07000001be00cf
:101f40001fb09700afb0970042fa07000001be0033
:101f50003fb09700cfb097000bfc07000001be0018
:101f60000c00be003bfa07000001be007fb29700e4
:101f70008fba97000400be0003fc07000006be00f5
:101f80005fb39700efb397000601be000600be00e6
:101f9000fdfb07000005be000001be00fafb0700c4
:101fa0000002be0022142f0033e523000a00be0009
:101fb000f4b79f0085bf9f00f3fb07005225230065
:101fc000c3e623002cfa07000001be000a00be0091
:101fd000edfb070052302a00b3e8230026fa070081
:101fe0000001be000a00be00e7fb0700b2aa2a00fb
:101ff000a3ea230020fa07000001be000a00be0089
:10200000e1fb070072db2600b3ed23001afa07009c
:102010000001be000a00be00dbfb0700a2992900f8
:1020200093f1230014fa07000001be007fb297006d
:102030008fba97000400be00d3fb07000005be0066
:102040005fb39700efb397000601be003fb0970063
:10205000cfb0970008fa07000001be000c00be00d8
:10206000c9fb07000001be000a00be0002fa07001b
:1020700090b79f00a1b79f003fb19700cfb19700e5
:102080000200be00c0fb07000005be0002002000e9
:1020900003042400f8f907001fb19700afb19700bf
:1020a000f5f9070081027800000267000401be0014
:1020b0003fb09700cfb09700f4b79f0085bf9f0057
:1020c000b1fb0700b0b79f00c1b79f007fb2970078
:1020d0008fba97000401be000c00be00aafb0700e7
:1020e0000006be0002002000030424007fb2970017
:1020f0008fba97000400be00d6f907000a01be009f
:10210000d4f907000001be001fb09700afb09700e0
:10211000d0f907005fb39700efb397000601be0048
:1021200099fb07000001be000c00be00d2f90700b9
:102130000005be000001be003fb09700cfb0970081
:10214000cdf9070081027800000267000200240038
:1021500063f723000400be00f4b79f0085bf9f0013
:1021600089fb070090b79f00a1b79f00623c220047
:10217000638f2b007fb297008fba97000400be00d8
:1021800081fb07000006be003fb19700cfb197006a
:102190007fb297008fba97000400be00adf9070028
:1021a0000001be000a00be00aaf90700f284230065
:1021b00063f7230074fb07000001be000c00be00a3
:1021c000adf90700a20021008fab97000701410085
:1021d0009201900012017800a7f90700d0af9f008c
:1021e000e1af9f001fa89700afa8970071f9070003
:1021f0000006be00200121008fa9970003004000c7
:1022000010057800900590005fa99700efa997004e
:102210001fb09700afb0970097f907000a01be0002
:1022200095f907000c01be0093f907000001be00fc
:1022300083007800020067000002be00b4b79f0070
:10224000c5b79f000c01be0082f907000a01be005d
:1022500080f907001fb19700afb197007df9070023
:102260000001be005fa89700efa8970079f907006a
:102270000005be00cfaa970000002f00bfab97005b
:10228000070260000401be000800be00f4b79f0012
:1022900085bf9f006ff907003fb19700cfb197004e
:1022a00039fb07000006be000a01be000800be00a0
:1022b00035fb07000001be000c00be006ef90700f0
:1022c0000004be003fb19700cfb197007fb29700e6
:1022d0008fba97000400be002bfb07000005be006c
:1022e000b0b79f00c1b79f000a01be000800be0042
:1022f00061f907000006be000003be0000002000d8
:1023000001302400800f5600818f5e0018003c00d1
:10231000800f5600818f5e001d003a00c2a32a0084
:10232000833323000800be00dcb79f00e7b79f009f
:1023300051f907000002be000a01be000c00be00f9
:10234000f4b79f0085bf9f0042f907000001be005f
:102350007fb297008fba97000400be00f2f8070022
:102360005fb39700efb397000000e000290034004e
:10237000a22c2f00931427007fa897008fb09700fe
:1023800001fb0700a22c2f0093142700e000370068
:102390008701780003f0a1000c0178000000200004
:1023a00061312400800f5100818f590011003c00e1
:1023b0000000200061312c00800f5600818f5e00ec
:1023c00014003a000a01be000c00be00dcb79f00fa
:1023d000e7b79f001ff907000001be000800be001c
:1023e000950107005fb39700efb397000000e0008e
:1023f00008003c000226240023da20007fa8970072
:102400008fb09700e0fa07000226240023da2000ac
:10241000bf0037008701780003f0a10006017800b3
:102420006022b8000000200001f02300800f51005e
:10243000818f59003a0034004798de0022f82f00bf
:102440000001410000002000010820000201e90015
:10245000030033008180d1000080d300fbff3700f0
:102460000000430081804b00010678008c01780059
:1024700003f0a100479ade00cf9ade000401be00ff
:10248000f207b1000380b100b2b79f00c3b79f004d
:10249000f4ff2f00f5072000bfb197008301e9008a
:1024a000030033008582d1000482d300fbff370094
:1024b0000482ea008582ea0085016600000162006c
:1024c000fd0720008d026600000278000570a00064
:1024d0003fb79700770017000000e90003003300c2
:1024e0008582d1000482d300fbff3700e00f530048
:1024f000e08f5b0002003d0060021200e0821a00e3
:102500000a00be00f4b79f0085bf9f00d1f8070006
:10251000b0b79f00c1b79f008fba97007fb29700f6
:102520003fb19700cfb197000800be00f4b79f00fd
:1025300085bf9f00d0f807008106780002002800c0
:10254000000661000220270013f323000c00be00e8
:102550008dfa07000005be003fb19700cfb197008c
:102560000c00be00bbf807000001be000800be0062
:10257000b8f807008221270013f3230082fa07002e
:102580000004be00c2e82b00f35b23000c00be0079
:102590007dfa07000001be000800be00b6f8070083
:1025a0000006be000001be000a00be00b2f807002f
:1025b0000004be000a01be00a6f807000001be002c
:1025c0000c00be00a3f80700b0b79f00c1b79f0082
:1025d0000801be000800be006bfa07000005be003f
:1025e000c2b42b001333230067fa0700e2a02e00c9
:1025f000d35d230097f807000001be000a00be006b
:1026000061fa070052352b00a38823009af80700cf
:102610000001be000a00be005bfa070012b62000ef
:1026200063b323008bf807000001be000a00be0060
:1026300055fa0700b2aa2a00a3e223008ef8070089
:102640000001be000a00be004ffa07000001be00f4
:102650000800be007ff807000005be000001be00b4
:102660000800be0048fa07000006be000200200075
:10267000030024000a00be0076f807000001be0037
:102680000c00be0061f907000005be003fb19700d5
:10269000cfb197000800be003bfa07000001be0062
:1026a0003fb09700cfb0970073f807000001be005d
:1026b0000a00be0067f807000801be0065f80700c1
:1026c0000001be000000200001f8230061f80700af
:1026d0007fb297008fba9700c721dd00020020006b
:1026e0000201400083814800479bde00cf9bde0053
:1026f000e00f5300e08f5b0003003c000401780012
:10270000140007000001be007fa897008fb097005b
:102710001dfa0700070037000800200009f8230011
:10272000050037006044b800030037000a04be000b
:10273000010037000004be000800be004f0778000b
:102740004f06be004f05be004f04be004f02b10051
:1027500000000600889fbe0002047800f9072000f0
:10276000890f54000d0034000200200003f0270000
:1027700005fa0700f807b100890f5400170034006c
:102780000200200003f02700fff90700f807b1005e
:10279000890f540010003c001000370029f82f006a
:1027a000890f54000d003d000200200003c82000e6
:1027b000f5f907006806b000890f540007003d00d6
:1027c0000200200003c82000eff907006806b000ef
:1027d000890f540001003d0009047800f207200031
:1027e00008014100cf91de00c711dd00020020008a
:1027f000e5f907004f04be0000000600889fbe00f8
:102800008a9fbe008c9fbe000004be000400200012
:1028100005f827008583600004037800840f5300c7
:10282000858f5b0007003a000801be000800be006b
:10283000d5f907000001be000800be000ef8070031
:1028400010003700e00f5000e08f58000f003c00f0
:102850008101780003f0a10000017800e00f510031
:10286000e08f59006a00320010022000d0808800fa
:102870000801be000800be00f6f707000001be0018
:10288000e2f807000004be0061003700478cde005c
:10289000cf8cde00e00f5400e08f5c000f003a00a8
:1028a0006044b80004003700000040008180480008
:1028b00061044400e0844c0004002000050820006e
:1028c0008181620004017800e00f5100e08f59001f
:1028d000f5ff320061041400e0841c00f807b10029
:1028e0000980b10081017800f307b200000178008f
:1028f0000200be000170a0000808a3000200320020
:1029000000004000818048008984d1000884d30001
:102910000000400081804800940120000200200057
:10292000031020006055b8006066b8000c03410039
:102930008d834900800f5300818f5b0006003c00af
:10294000060641008786490006005000878058002f
:102950000a0541008b854900000040008180480045
:102960008301d1000281d3000402e900efff3a00a5
:10297000e00f5000e08f58001b00320002262400b8
:1029800023da20000000200001f82300b1f707003f
:102990000200200003f8230063f707000000e000b6
:1029a000110035000226240023da20000000200058
:1029b00001f82300b0f707000200200003f823000d
:1029c00059f707000000e0000300340062054500ed
:1029d000e0854d00040037006000b800610065002c
:1029e0000005450081854d00c744dd00080020003a
:1029f0000000200001f02300080440008984480002
:102a00008b85d1000a85d3000804450089844d00d8
:102a10000800be004f06be004f05be004f04be00ba
:102a2000000006000001be008300780001f0a10054
:102a3000020078000000060014002000dafa3700d7
:020000040000fa
:102a40001200fa00889fbe0070079800010f9800de
:102a50000000eb00000f7800100020001007980025
:102a600000202a00a1442000200798003107980088
:102a70000e089000cf80de004ef707000004be0075
:102a80002e009000be0090004af707000001be0033
:102a90000800be003cf9070018c0b30002f02f0088
:102aa000f377240020f707000000e00001003c005d
:102ab0000044eb000804e0004200320080002000e7
:102ac000100798001e009000cf80de000001be00bd
:102ad0002e009000be00900004f707004007980009
:102ae0005107980010002000000f78000e08900099
:102af000cf80de002ff707000004be004e009000dc
:102b0000de0090002bf707000001be000800be00a9
:102b10001df9070018c0b30002f02f00f37724005e
:102b200001f707000000e00001003c000044eb005a
:102b30000804e00023003200000420001007980081
:102b40001e009000cf80de000001be002e0090002d
:102b5000be009000e5f60700400798005107980076
:102b600020002000000f78000e089000cf80de00cb
:102b700010f707000004be004e009000de00900039
:102b80000cf707000001be000800be00fef80700b9
:102b900018c0b30002f02f00f3772400e2f607001c
:102ba0000000e00001003c000044eb000804e000ed
:102bb00004003200001020001007980030002000b0
:102bc000000f78001e009000cf80de000001be00e4
:102bd0002e009000be009000c4f60700f5f6070036
:102be0000004be000e089000cf80de00f1f6070062
:102bf00002002000a347240004f807000001be00e3
:102c00000800be00e0f80700c9f60700600798005a
:102c10007e009000e10f500028003a0005e1a90075
:102c20000021ef006e009000100888001e00780060
:102c3000e30f500005003a00210880000003200047
:102c40000100700020088800190037001e0078007d
:102c5000e20f500006003a0021088000f0fc2f002f
:102c6000008060000050a00020088800100037009d
:102c70001e007800e10f500006003a002108800095
:102c8000f0fc2f00008060000040a00020088800b9
:102c9000070037001e0078000000e00004003a0042
:102ca00021088000f0fc2f000080600020088800d0
:102cb0000068a90005e1a800810037007e009000af
:102cc000e20f500028003a0011e1a9000621ef00b0
:102cd0006e009000600888001e007800e30f50002e
:102ce00005003a0081088000000320000100700008
:102cf00080088800190037001e007800e20f50009d
:102d000006003a0081088000f0fc2f00008060007f
:102d10000050a00080088800100037001e007800d6
:102d2000e10f500006003a0081088000f0fc2f00ff
:102d3000008060000040a000800888000700370085
:102d40001e0078000000e00004003a0081088000c6
:102d5000f0fc2f00008060008008880000e8a900d7
:102d600011e1a800560037007e009000e30f5000ec
:102d700029003a0013e1a9000108a9000a21ef0087
:102d80006e009000700888001e007800e30f50006d
:102d900005003a0091088000000320000100700047
:102da00090088800190037001e007800e20f5000dc
:102db00006003a0091088000f0fc2f0000806000bf
:102dc0000050a00090088800100037001e00780016
:102dd000e10f500006003a0091088000f0fc2f003f
:102de000008060000040a0009008880007003700c5
:102df0001e0078000000e00004003a009108800006
:102e0000f0fc2f0000806000900888000108a900f5
:102e100013e1a8002a0037007e009000e40f500064
:102e200027003a001fe1a9001421ef006e00900076
:102e3000d00888001e007800e30f500005003a001b
:102e4000f10880000003200001007000f0088800f5
:102e5000190037001e007800e20f500006003a000b
:102e6000f1088000f0fc2f00008060000050a000fe
:102e7000f0088800100037001e007800e10f5000b5
:102e800006003a00f1088000f0fc2f00008060008e
:102e90000040a000f0088800070037001e007800fe
:102ea0000000e00004003a00f1088000f0fc2f0070
:102eb00000806000f00888000368a9001fe1a800f6
:102ec0004f04be000080fa00000006000200fa0075
:102ed000000f78001e007800e10f50000d003a004e
:102ee00000408000680060000000e0000200320046
:102ef000100020004000370000000000004080006b
:102f0000680060000000e000fcff32000068a900db
:102f1000380037001e007800e20f500010003a0021
:102f20000140800000082000008060000000e000f8
:102f30000300320000e8a900100020002e00370036
:102f400000000000014080000008200000806000b8
:102f50000000e000fbff320000e8a9002500370078
:102f60001e007800e30f500010003a00014080007e
:102f700000102000008060000000e000030032002c
:102f80000108a900100020001b003700000000000d
:102f90000140800000102000008060000000e00080
:102fa000fbff32000108a900120037001e00780064
:102fb000e40f50000f003a00114080000080200014
:102fc000008060000000e000030032000368a900f8
:102fd00010002000080037000000000011408000b1
:102fe00000802000008060000000e000fbff320055
:102ff0000368a9000000eb000080fa000000060052
:103000000a00fa003007980041079800ce009000af
:10301000010f78001b0037009e007800800c200014
:1030200000017800110009008200d8008000fd0036
:10303000100798001e0090000000e00009003a0010
:10304000810c20003e0090007dfe07003e009000b5
:103050009eff07002007980081f32f001e8f40007d
:10306000080037009e0090003e00900074fe0700ac
:103070003e00900095ff0700200798001e0090007a
:103080001e0f10001e0078000000e000e2ff3a0072
:103090000080fa00000006000000fa006e2eef002b
:1030a000707380007072880070728000f071880008
:1030b000f07180007071880070718000f07088007d
:1030c000f070800070708800000ea900612ea900c9
:1030d000110ea900502ea900410ea800412ea800f3
:1030e000040ea900652ea900150ea900542ea900f2
:1030f0000080fa00000006000200fa00000f7800cd
:103100001e007800e10f500001003a00040ea800f4
:103110001e007800e20f500001003a00652ea80062
:103120000080fa00000006000200fa00000f78009c
:103130001e007800e10f500001003a00040ea900c3
:103140001e007800e20f500001003a00652ea90031
:103150000080fa00000006000200fa00000f78006c
:103160001e007800e10f50000d003a002070800032
:103170006100600000f0a7000000ea000000e90024
:103180004f00de00004078000080fb00610060001e
:10319000217080000100a1000100700020708800f3
:1031a0001e007800e20f50000f003a0021738000eb
:1031b000002020000080600000f0a7000000ea006e
:1031c0000000e9004f00de00004078000080fb00b6
:1031d000610060004900dd00217380000190a100c2
:1031e00001007000207388001e007800e30f50007b
:1031f0001d003a00a17080000010200000806000d7
:1032000000f0a7000000ea000000e9004f00de0027
:10321000004078000080fb00610060004800dd0095
:10322000a17080000180a10001007000a0708800e2
:10323000a07280006200600000f0a7000000ea00b9
:103240000000e9004f00de00004078000080fb0035
:103250006100600000004000a17280000110a10028
:1032600001007000a07288000080fa0000000600d3
:103270000800fa00889fbe00200798006147980068
:103280002e009000cf80de004af5070002002000eb
:10329000034824005df60700323323003305240081
:1032a00039f70700008fbe006e4090000000fb0061
:1032b000d1042000810f5000090032006105200078
:1032c000810f500033003a00020020000304240064
:1032d0001e0078009e0090002bf707002e0037009c
:1032e00042e12a00730924001e0078009e0090002d
:1032f00025f707000001be00f0282c005101240032
:1033000054f507000004be001e0078009e009000e7
:103310000001be001cf7070052b82e00130824005d
:1033200019f707000001be000800be0052f50700b3
:103330000004be0002002000030424001e007800e8
:103340009e00900020f90700d2cc2c00c3fc230083
:103350000df707000001be000800be003df50700a4
:103360000004be0002002000030824001e007800b4
:103370009e00900014f90700f2282c0053e7230068
:1033800001f707000001be000800be003af5070083
:10339000010037006000b8004f04be000080fa0052
:1033a000000006000400fa00004f780011079800a2
:1033b0000029ef000229ef001e00fb00c1042000dd
:1033c000810f500019003200c1042000810f50000d
:1033d00007003c0021042000810f5000290032002a
:1033e00061042000810f50000500320030003700da
:1033f00021052000810f5000170032002c003700fb
:103400002134800000fc2f00008060000040a000fc
:10341000203488001134800000fc2f000080600000
:103420000040a000103488002100370021348000c3
:1034300000fc2f00008060000040a00020348800c5
:1034400001348000f00f2c000080600000c0a0005c
:10345000003488001600370011348000f00f2c0073
:103460000080600000c0a00010348800113480008b
:1034700000fc2f00008060000040a0001034880095
:103480000b00370011348000f00f2c00008060002a
:1034900000c0a0001034880001348000f00f2c0020
:1034a0000080600000c0a000003488000000000020
:1034b00030c5b3009e40780080cf5000100032002d
:1034c0000148800000c02100010070000048880011
:1034d000004521003048880000c2210020488800b3
:1034e00010488000f001b3001048880001488000b7
:1034f00080ff2f00008060006000b300004888005b
:103500000080fa00000006000400fa00000f7800b6
:10351000214798001e00780010007800e20f50004c
:103520000f003200e30f50004a003200e10f50005c
:1035300072003a00ae40900040c2b30080cf50000d
:103540006d003a001e00780021002000010878007c
:103550001e0078008000eb006130980067003700a3
:10356000ae409000c0c2b30080cf50000e003a00c1
:103570001e00780031002000010878001e0078004d
:10358000603090009e007800008040000080e800dd
:103590008040eb00014878001e0078008000eb00be
:1035a00071309800550037001e00780060309000a0
:1035b000e60f500007003a001e00780011002000be
:1035c000010878001e0078008000eb006130980050
:1035d0004a003700ae409000a0c2b30080cf500038
:1035e0000f003a001e00780011002000010878004a
:1035f0001e007800603090009e007800008040003f
:103600000080e8008040eb00014878001e00780050
:103610008040eb000148980010002000380037007f
:103620001e007800603090009e007800008040000e
:103630000080e800ae409000014878001e0078004d
:10364000603090008000e8001e0078006130980033
:103650002a003700ae409000a0c2b30080cf5000d7
:103660000c003a001e0078001100200001087800cc
:103670001e007800703090009e00780000804000ae
:10368000680040008040eb000148780010002000f6
:103690001b0037001e007800f0309000400620002c
:1036a000808f500007003a001e00780011002000b3
:1036b000010878001e0078008000eb00713098004f
:1036c0000e0037001e007800703090009e007800d9
:1036d0000080400068004000ae4090000148780043
:1036e0001e007800703090008000e8001e00780016
:1036f0007130980001003700000000000000eb006e
:103700000080fa00000006000800fa003007980068
:103710000000eb00000f78000000eb00100798009d
:1037200010002000200798001e007800be009000c6
:103730000080400090407800d0c2b30080cf50009d
:1037400004003a000080eb00200798001e0fe800fc
:103750001a0037001e007800be0090000080400074
:1037600090407800b0c2b30080cf500012003a0001
:1037700010002000200798001e0fe8000f003700ff
:103780001e009000ea00b900100798001e007800a3
:10379000be00900000804000104078000000fb0058
:1037a0000003b1009e0090000080400010079800c8
:1037b0001e0fe80001003700000000001e00780026
:1037c000be0090000080400090407800c0c2b3006e
:1037d00080cf5000060032001e007800be0090002e
:1037e00000804000104078000004e000e4ff3a0050
:1037f000ae0090001e0090008088b9000080fa00a2
:10380000000006000400fa00000f7800110798007d
:10381000030037001e0090000000e8001007980029
:103820001e0090001e00400090407800c0c2b3000f
:1038300080cf5000050032001e0090001e004000a6
:10384000104078000004e000f2ff3a001e009000f3
:103850001e00400090407800c0c2b30080cf5000ee
:1038600003003a001e0090000000e80010079800d6
:103870001e0090000080fa00000006000000fa0020
:103880000080fa00000006000000fa00316ea80077
:103890000134800000fc2f00008060000000a000c8
:1038a000003488002136800000f82f0080806000fe
:1038b000b00420000100700020368800301d200078
:1038c000401188000168a9002168a80023a2a9006e
:1038d00023e2a9000188a9002188a80021e2a8000c
:1038e0002342a80011118000f0f32f000080600037
:1038f000101188000080fa00000006000000fa00a5
:103900001f6ea8001fcea800112ea90080c0b30012
:1039100024e3b7002043a80021198000f00f2e00f7
:103920000080600000c0a0002019880001198000fc
:10393000000e20000100700000198800111980009d
:10394000f0cf2f0000806000101988002343a800ea
:103950001119800030f82f00008060000020a000c6
:10396000101988003163a80031c3a80021e3a80022
:103970000080fa00000006000000fa00302ea900c6
:10398000304ea900306ea900308ea9000080fa00e8
:10399000000006000000fa00410ea800013580007a
:1039a000f00f28008080600000802500010070007a
:1039b00000358800c3e8a8000288a9002288a80072
:1039c0000080fa00000006000000fa000288a9004a
:1039d0002288a8000080fa00000006000200fa0019
:1039e000adfd0700ebff07000000eb00000f7800c3
:1039f0001e0078000000e00003003200e10f5000dc
:103a00000f0032001c00370010002000bafd070034
:103a10001172800000102000008060000000e000b3
:103a20000700320010408000700060000000e000dd
:103a300003003200e4ff070010002000000f7800b0
:103a400010002000b8fd0700117280000010200057
:103a5000008060000000e00007003200104080009d
:103a6000700060000000e00003003200d6ff070095
:103a70000000eb00000f78001e007800e10f5000fe
:103a800003003a00200020009bfd0700d8ff37000c
:103a900020002000a4fd0700d5ff37000600fa0033
:103aa00010079800210798000000eb00000f780035
:103ab0002c0037001e007800ea00b9009e0090003c
:103ac00000804000900078008100e8000108780044
:103ad0001e007800ea00b9009e00900000804000bf
:103ae00020009000e10f50001d003a001e007800f9
:103af000ea00b9009e00900000804000900078002d
:103b00001e007800ea00b9001e019000000041008c
:103b100010009000808f5000110035001e007800ca
:103b2000ea00b9009e00900000804000b0009000c4
:103b30001e007800ea00b9001e019000000041005c
:103b400040009000010001001e007800ea00b9006a
:103b50009e009000008040008000eb00010878008b
:103b60001e0fe8002e0090009e007800808f50000d
:0c3b7000d0ff35000080fa0000000600c5
:020000040000fa
:103b7c000010000002000000800000000210000095
:103b8c001800000082000000000080003f000000d0
:103b9c00c03f000000000000dccfd1003500000069
:103bac0000000000c0153f001a10000002000000c9
:083bbc00800000000000000081
:00000001FF
