:020000040000fa
:080000000002040000000000f2
:020000040000fa
:040008006803000089
:020000040000fa
:04000c006803000085
:020000040000fa
:040010006803000081
:020000040000fa
:04001400680300007d
:020000040000fa
:040018006803000079
:020000040000fa
:04001c006803000075
:020000040000fa
:040020006803000071
:020000040000fa
:04002400680300006d
:020000040000fa
:040028006803000069
:020000040000fa
:04002c006803000065
:020000040000fa
:040030006803000061
:020000040000fa
:040034003a0300008b
:020000040000fa
:040038006803000059
:020000040000fa
:04003c006803000055
:020000040000fa
:040040006803000051
:020000040000fa
:04004400680300004d
:020000040000fa
:040048006803000049
:020000040000fa
:04004c006803000045
:020000040000fa
:040050006803000041
:020000040000fa
:040054001a0300008b
:020000040000fa
:040058006803000039
:020000040000fa
:04005c006803000035
:020000040000fa
:040060006803000031
:020000040000fa
:04006400680300002d
:020000040000fa
:040068006803000029
:020000040000fa
:04006c006803000025
:020000040000fa
:040070006803000021
:020000040000fa
:04007400680300001d
:020000040000fa
:040078006803000019
:020000040000fa
:04007c006803000015
:020000040000fa
:040080006803000011
:020000040000fa
:04008400680300000d
:020000040000fa
:040088006803000009
:020000040000fa
:04008c006803000005
:020000040000fa
:040090006803000001
:020000040000fa
:0400940068030000fd
:020000040000fa
:0400980068030000f9
:020000040000fa
:04009c0068030000f5
:020000040000fa
:0400a00068030000f1
:020000040000fa
:0400a40068030000ed
:020000040000fa
:0400a80068030000e9
:020000040000fa
:0400ac0068030000e5
:020000040000fa
:0400b00068030000e1
:020000040000fa
:0400b40068030000dd
:020000040000fa
:0400b80068030000d9
:020000040000fa
:0400bc0068030000d5
:020000040000fa
:0400c00068030000d1
:020000040000fa
:0400c40068030000cd
:020000040000fa
:0400c80068030000c9
:020000040000fa
:0400cc0068030000c5
:020000040000fa
:0400d00068030000c1
:020000040000fa
:0400d40068030000bd
:020000040000fa
:0400d80068030000b9
:020000040000fa
:0400dc0068030000b5
:020000040000fa
:0400e00068030000b1
:020000040000fa
:0400e40068030000ad
:020000040000fa
:0400e80068030000a9
:020000040000fa
:0400ec0068030000a5
:020000040000fa
:0400f00068030000a1
:020000040000fa
:0400f400680300009d
:020000040000fa
:0400f8006803000099
:020000040000fa
:0400fc006803000095
:020000040000fa
:040100006803000090
:020000040000fa
:04010400680300008c
:020000040000fa
:040108006803000088
:020000040000fa
:04010c006803000084
:020000040000fa
:040110006803000080
:020000040000fa
:04011400680300007c
:020000040000fa
:040118006803000078
:020000040000fa
:04011c006803000074
:020000040000fa
:040120006803000070
:020000040000fa
:04012400680300006c
:020000040000fa
:040128006803000068
:020000040000fa
:04012c006803000064
:020000040000fa
:040130006803000060
:020000040000fa
:04013400680300005c
:020000040000fa
:040138006803000058
:020000040000fa
:04013c006803000054
:020000040000fa
:040140006803000050
:020000040000fa
:04014400680300004c
:020000040000fa
:040148006803000048
:020000040000fa
:04014c006803000044
:020000040000fa
:040150006803000040
:020000040000fa
:04015400680300003c
:020000040000fa
:040158006803000038
:020000040000fa
:04015c006803000034
:020000040000fa
:040160006803000030
:020000040000fa
:04016400680300002c
:020000040000fa
:040168006803000028
:020000040000fa
:04016c006803000024
:020000040000fa
:040170006803000020
:020000040000fa
:04017400680300001c
:020000040000fa
:040178006803000018
:020000040000fa
:04017c006803000014
:020000040000fa
:040180006803000010
:020000040000fa
:04018400680300000c
:020000040000fa
:040188006803000008
:020000040000fa
:04018c006803000004
:020000040000fa
:040190006803000000
:020000040000fa
:0401940068030000fc
:020000040000fa
:0401980068030000f8
:020000040000fa
:04019c0068030000f4
:020000040000fa
:0401a00068030000f0
:020000040000fa
:0401a40068030000ec
:020000040000fa
:0401a80068030000e8
:020000040000fa
:0401ac0068030000e4
:020000040000fa
:0401b00068030000e0
:020000040000fa
:0401b40068030000dc
:020000040000fa
:0401b80068030000d8
:020000040000fa
:0401bc0068030000d4
:020000040000fa
:0401c00068030000d0
:020000040000fa
:0401c40068030000cc
:020000040000fa
:0401c80068030000c8
:020000040000fa
:0401cc0068030000c4
:020000040000fa
:0401d00068030000c0
:020000040000fa
:0401d40068030000bc
:020000040000fa
:0401d80068030000b8
:020000040000fa
:0401dc0068030000b4
:020000040000fa
:0401e00068030000b0
:020000040000fa
:0401e40068030000ac
:020000040000fa
:0401e80068030000a8
:020000040000fa
:0401ec0068030000a4
:020000040000fa
:0401f00068030000a0
:020000040000fa
:0401f400680300009c
:020000040000fa
:0401f8006803000098
:020000040000fa
:0401fc006803000094
:020000040000fa
:04020000680300008f
:020000040000fa
:04020400680300008b
:020000040000fa
:040208006803000087
:020000040000fa
:04020c006803000083
:020000040000fa
:04021000680300007f
:020000040000fa
:04021400680300007b
:020000040000fa
:040218006803000077
:020000040000fa
:04021c006803000073
:020000040000fa
:04022000680300006f
:020000040000fa
:04022400680300006b
:020000040000fa
:040228006803000067
:020000040000fa
:04022c006803000063
:020000040000fa
:04023000680300005f
:020000040000fa
:04023400680300005b
:020000040000fa
:040238006803000057
:020000040000fa
:04023c006803000053
:020000040000fa
:04024000680300004f
:020000040000fa
:04024400680300004b
:020000040000fa
:040248006803000047
:020000040000fa
:04024c006803000043
:020000040000fa
:04025000680300003f
:020000040000fa
:04025400680300003b
:020000040000fa
:040258006803000037
:020000040000fa
:04025c006803000033
:020000040000fa
:04026000680300002f
:020000040000fa
:04026400680300002b
:020000040000fa
:100400002f1f21000eff27000e01880000000000b2
:10041000000020000000e000020032000001200087
:1004200020028800140007005c0107000000e000c3
:1004300003003a00006f2300010020000200370093
:100440000000200001002000810f70000100320038
:100450000f000700000020000000e0000200320052
:1004600000000200000000001c3b02000000000031
:100470000040da000000fe00000420000000e00060
:1004800002003200002020009001880000000600d9
:10049000a1028800800478000000eb001f003700f4
:1004a000e284440054a0b4009905ba00e2844400f8
:1004b00054a0b4009906ba00e284440054a0b400e9
:1004c0000006eb00476fde00fd07b200ae018800ba
:1004d000636ce10003003a000ad801000000eb0061
:1004e0000e003700606ce10008003a00004deb00a0
:1004f0000a05e800020039003420ec000af0a000f0
:100500008b05e900f9ff3e00040037006168e10057
:10051000010032000086eb000b00070019c7ba008b
:100520000e04e0001905ba0003003a000a00e000da
:10053000dbff3a0000000600fe07b200ae028800b2
:100540008a047800f5ff37000cd0a300e20f4d00bd
:100550001c003b0089027800354dba000a05e8000e
:10056000020039003420ec000af0a0008b05e900fd
:100570000f003200254dba000a05e80002003900dc
:100580003420ec000af0a0008b05e90008003200de
:100590000c00e0000600320015cdba000a05e800a4
:1005a000020039003420ec000af0a0008b05e900bd
:1005b0008984e80054a0b4000b00e000e2ff3a0098
:1005c000000006009902ba00055d78008b05e9007d
:1005d000f7ff3200c82ade00055d78008b05e900d0
:1005e000f3ff32000c00e000f1ff320019ddba0029
:1005f000eeff37009c0e040000000000842704007a
:100600000000000062290400000000000e28040021
:10061000000000007e2804000000000012290400f1
:100620000000000000000400000000008427040017
:1006300000000000801f78003200f8003400f8004d
:1006400010002000a00188000020200000d0fe0043
:100650000200fa0030118000004f78000168a90004
:100660000080fa003400f9003200f9004f007800f1
:10067000004006003600f800809fbe00829fbe004a
:10068000849fbe00869fbe003200f8003400f80050
:1006900010002000a00188000020200000d0fe00f3
:1006a0000000fa000068a900271c07000080fa007b
:1006b0003400f9003200f9004f03be004f02be00c3
:1006c0004f01be004f00be003600f900004006009a
:1006d0000040da000000fe000a00fa000000e0001e
:1006e00037003a00738f8000e18f51000300320021
:1006f000e28f51000e003a0009003700002220006e
:100700000000e00001003a000040da002002e200b0
:100710000b0035002822ef0021e2a8000800370076
:10072000002320000000e00001003a000040da0051
:100730003002e200020035003822ef0031e2a8006a
:10074000020078001a003700040a2000e18f5100ef
:100750000b003a00030037000402e90002003a00ef
:1007600003003700040a20002202ab00faff320027
:1007700014118000050037000402e9000200320075
:100780003202ab00fcff3200941180006102620073
:1007900009003200e18f510002003a00341180005c
:1007a00001003700b4118000845878000000e9008f
:1007b0000000e000e4ff3a000000510008003700ac
:1007c00023002000b3bf9f00c0bf9f00d1bf9f0088
:1007d000e2bf9f006a805700241407006fb897009b
:1007e0000080fa00000006000a00fa001100200054
:1007f000b1bf9f00c0bf9f006a8057001d14070053
:100800004fb897000080fa00000006000a00fa00c6
:10081000e20f500034003e00708f8000e10f500066
:1008200003003200e20f500011003a000c003700c4
:10083000032220000300e00001003a000040da003b
:100840002002e200020035002822ef0021e2a80089
:100850002342ab000d003a002342a8000b003700f2
:10086000032320000300e00001003a000040da000a
:100870003002e200020035003822ef0031e2a80029
:100880003342ab0001003a003342a80082017800f5
:100890000b0037003102fb00e10f500004003a006a
:1008a0002322ab00feff3a0024118800030037002a
:1008b0003322ab00feff3a00a41188008301e90057
:1008c0000300e000f3ff3a00e10f500003003a009c
:1008d0002302ab00feff32000b0037003302ab00f7
:1008e000feff32000800370033002000b3bf9f0036
:1008f000c0bf9f00d1bf9f00e2bf9f006a8057002a
:10090000de1307006fb99700020078000080fa003c
:1009100000000600889fbe0080047800808f800061
:100920000000e00005003a000000eb000e000700a8
:100930000084eb000000e00008003500888f800094
:100940000900e0000500320009004400060007002d
:100950000000e00001003d000084eb00080078008a
:100960004f04be0000000600800078000100e00097
:1009700003003a0000002000808f8800000005007e
:100980000080eb0002002000828f500002003e0039
:10099000818f88000000eb000000060000000500c9
:1009a0000000fa0068815700cfb89700de04070006
:1009b0000080fa00000006001b0007007700070017
:1009c00049030700fe030700280407007f03070010
:1009d000e804070061050700080537000000fa0079
:1009e00068815700cfb89700cf0407000080fa0055
:1009f0000000060069000700de0437000000fa006e
:100a000068815700cfb89700cc0407000080fa0037
:100a1000000006007e07070037080700d20807001d
:100a2000e80807008a083700ec874700889fbe0067
:100a30008a9fbe008c9fbe008e1f78000006780043
:100a400001047800180790002805900098067800a7
:100a5000cdb79f00b8059000120278009202900076
:100a600022039000b20390000400be000601be0005
:100a70004f18de006011b8008000eb00d0b79f0077
:100a8000e1b79f00f2b79f0083bf9f00800478000a
:100a90000900e000060032006000b8006011b800f4
:100aa00004025000858258000603590087835900cc
:100ab0000e00e000020035000d10a100cdb79f0030
:100ac0000900e00005003a004fb097000028a3009d
:100ad00002003a000038a300020032008a00e90058
:100ae000010037008a007800f8815700a20020003a
:100af000080078005f0307000900e00003003a00e7
:100b0000cfb097000128a300080032000000e900e0
:100b100000814500b1c2b3000900e00001003200cd
:100b2000d1c2b30001497800060037000138a300a4
:100b3000040032000000e9008080450002c2b300da
:100b400082487800480190000201e900000151004c
:100b5000808045004fb297008a0178000c00780031
:100b6000490507009c0090000188a30004003200a2
:100b700098009000810f500001003d0001007800b6
:100b80004f0778004f06be004f05be004f04be0061
:100b9000cf00b10000000600000006002f04b000e6
:100ba000889fbe008a9fbe008c9fbe008e1f78006b
:100bb000b09f9f00a1a79f00a37f9f001100780016
:100bc000d0a79f0091009000f1a79f00afa19700d0
:100bd000a3019000c3a79f002fa29700440290009a
:100be000a49f9f00afa297003507900012047800e1
:100bf0009204900022059000b20590006022b80097
:100c00006033b8000800be000a01be001d130700d3
:100c10000000e00003003d000bf0a200d0c2b300d2
:100c2000040037005fa397000628a30008003200e5
:100c3000b0c2b300004f7800cfa397008703e9004c
:100c400087af9f0010002000e0a79f000f00370033
:100c5000dfa097000138a3000800320000c2b300f3
:100c6000004f78004fa197000201e90082af9f007a
:100c700013002000e3a79f00040037004fa2970055
:100c800084af9f008002eb00e5a79f000800be0034
:100c90000a01be00c0ff0700f4ff2f00f5ff2f0080
:100ca000f6ff2f00f7ff2700040260008582600036
:100cb00006036100878361006000b8000200200025
:100cc00003ff27000020e10001a8e10002b0e100dd
:100cd00003b8e10010003a002f7b97008600fb006c
:100ce0001104b100efa3970007004700f98f5000ef
:100cf00002003e00611d210001003700a11d2100fe
:100d0000820c0700a01d2100870c0700efa09700b0
:100d100001014000140037000020e10001a8e100bb
:100d200002b0e10003b8e100120036002f7997000d
:100d30008200fb001104b100efa1970003004700ff
:100d4000f98f500002003e00e11d21000100370034
:100d5000211e21006d0c0700201e2100720c0700cf
:100d60006fa29700040140005fa29700cfa19700f7
:100d7000490237006022b8006033b8000800be00a6
:100d80000a01be00bf1207000000e0006800320048
:100d90006000b8000200200003ff2300d0af9f00d6
:100da000e1af9f00f2af9f0083b79f008006eb008a
:100db0000802be000a03be0094b79f00a5b79f00bb
:100dc000b6b79f00c7b79f00070037008d06e80041
:100dd0000800be000a01be00d0af9f00e1af9f0037
:100de000f2af9f0083b79f006022b800060020008a
:100df000470224005fa89700efa897007fa99700fb
:100e00008fb197003a1407000004be000205be002f
:100e10000002be000203be001fb09700afb09700f3
:100e20003fb19700cfb19700961207000000e00095
:100e3000e6ff3d000006eb005fac9700efac9700cb
:100e40007fad97008fb597002500370040ed2f004c
:100e5000808f560019003d000c00e00016003a009b
:100e60006022b80006002000073524001fb097005c
:100e7000afb097003fb19700cfb197001c140700a7
:100e80000002be000203be0094b79f00a5b79f00fa
:100e9000b6b79f00c7b79f006022b80006002000c9
:100ea000073524000800be000a01be001014070028
:100eb0000004be000205be001c0020006022b80035
:100ec00006002000470224000800be000a01be0000
:100ed000581307000004be000205be008d06e9009d
:100ee0000802be000a03be001fb09700afb0970013
:100ef0003fb19700cfb19700621207000000e000f9
:100f0000d2ff35000800be000a01be00d0af9f002e
:100f1000e1af9f00f2af9f0083b79f001fb497001f
:100f2000afb497003fb59700cfb5970008003700e2
:100f30006022b8000600200007ff2300d4af9f0006
:100f4000e5af9f00f6af9f0087b79f008006eb00dc
:100f5000af7a97000500fb00460c0700b07f9f00aa
:100f60007fa39700600020000600e000010035002c
:100f70007fa0970071c6b300bf7b970081cf53005d
:100f80000a003a00ffa097000100e000cb01320008
:100f9000cb0137008d0f5000cf013c0090b79f0070
:100fa00052c6b300e2cf9f001e003700bf79970002
:100fb000e3cf9f000200370064c6b300e4cf9f0078
:100fc0000000e80090b79f0060c6b300efca97002a
:100fd00080cf520013003a000d00e00008003d00f1
:100fe0006000b8000200200003ff2300d0af9f0084
:100ff000e1af9f00f2af9f0083b79f008006eb0038
:1010000061c6b300e1cf9f0070c6b3003f7997007f
:10101000804f5100030032009fb197008d81410045
:1010200093b79f005faa9700efaa97007fab970046
:101030008fb39700d4b79f00e5b79f00f6b79f0026
:1010400087bf9f000800be000a01be0090af9f004e
:10105000a1af9f00b2af9f00c3af9f000006eb009f
:101060000802be000a03be00e49f9f00f59f9f0098
:1010700086a79f0097a79f00310037005fb29700b7
:10108000efb297007fb397008fbb97001fa8970020
:10109000afa897003fa99700cfa99700e5120700d6
:1010a000b31607000004be000205be001e120700b2
:1010b00080027800b5a79f005fb29700efb297005b
:1010c0007fb397008fbb97000800be000a01be00e7
:1010d000871307001faa9700afaa97003fab97009e
:1010e000cfab9700821207000002be000203be00d1
:1010f00007f0a20094af9f00a5af9f00b6af9f007e
:10110000c7af9f006022b8000600200047022400fd
:101110005fb09700efb097007fb197008fb997004d
:10112000c41207000002be000203be00d4b79f0035
:10113000e5b79f00f6b79f0087bf9f000c06e80049
:101140009fb29700850f5600ccff35006f9c97002b
:10115000ff9c97000fa597009fa597006022b800fd
:1011600006002000470124005fb09700efb0970011
:101170007fb197008fb997005d1307000002be0092
:101180000203be00d4b79f00e5b79f00f6b79f00eb
:1011900087bf9f001fa89700afa897003fa997009f
:1011a000cfa99700b71107000000e0000f0035003d
:1011b0005fb29700efb297007fb397008fbb9700a5
:1011c0001fa89700afa897003fa99700cfa9970045
:1011d000ac1107000000e00011003a00bfa2970028
:1011e0000508a300080032000d0037006000b800b9
:1011f0006011b800d0b79f00e1b79f00f2b79f0021
:1012000083bf9f00060037006022b8006033b8003b
:10121000d4b79f00e5b79f00f6b79f0087bf9f0038
:101220005fb29700efb297007fb397008fbb970034
:101230000800be000a01be00331207000002be0013
:101240000203be0094af9f00a5af9f00b6af9f0002
:10125000c7af9f006022b8000600200047022400ac
:101260005fa89700efa897007fa997008fb197001c
:101270001f1307000004be000205be000002be00ee
:101280000203be001fa89700afa897003fa99700d0
:10129000cfa99700801107000000e0000900350089
:1012a0008d06e80060c6b300efca970080cf5200f9
:1012b00008003a001fb397000603e80096b79f00a6
:1012c000110037005fac9700efac97007fad97003f
:1012d0008fb5970050c6b3006fc99700804f51007b
:1012e00009003a000802be000a03be00d4b79f00fe
:1012f000e5b79f00f6b79f0087bf9f008002eb0015
:10130000d5af9f00070037000800be000a01be00ed
:10131000d0b79f00e1b79f00f2b79f0083bf9f0047
:10132000ddaf9f006fa697000001eb00b2a79f0002
:10133000c29f9f00e29f9f009d9f9f006800370013
:101340005fb29700efb297007fb397008fbb970013
:101350001fa89700afa897003fa99700cfa99700b3
:1013600034120700021607000004be000205be008a
:101370006d110700e90f50000100340090002000bb
:10138000dfa197000348a3000c003a000000e00032
:101390000a003a0071c6b3003f7a9700814f5200ad
:1013a00006003a00dfaa97000500e00003003d00b8
:1013b0003fa397008606e80021003700cf9b9700e7
:1013c0000700e0000c003a00dfa897000100e000f1
:1013d00009003d000c014700e1c2b300014978005b
:1013e0000c06e8000fa997000201e90082af9f00f8
:1013f00013002000c39f9f000c014700bfa6970069
:101400000300370001c3b300015978008d06e900dd
:101410000d00e000fbff3a003fa2970004064600e3
:101420008c00470005c3b300854840000c06e80067
:101430000480ea000fab97000003430086af9f00d3
:101440005fb29700efb297007fb397008fbb970012
:101450000800be000a01be00a51207001faa9700df
:10146000afaa97003fab9700cfab9700a011070042
:101470000002be000203be0007f0a20094af9f006e
:10148000a5af9f00b6af9f00c7af9f006022b80016
:1014900006002000470224005fb09700efb09700dd
:1014a0007fb197008fb99700e21107000002be00dc
:1014b0000203be00d4b79f00e5b79f00f6b79f00b8
:1014c00087bf9f00dfaa97008502e900d5af9f0084
:1014d0006f9b97000603e800e69f9f00bda79f0053
:1014e000ef9b97001fb09700808f530005003d00d1
:1014f000afa097004100900065005000800f56009b
:101500008fff39009f9e97004f9997000200e000df
:1015100007003a00dfa197000348a300040032004f
:101520000c004700e1c2b300014878000c06e80057
:101530000c0047000048eb0051c6b3006fca97008b
:10154000814f520036003a00af9a97008500e900bb
:10155000010147000049eb008001eb000d00e000b5
:1015600002003d008d06ea0013002000220020004a
:10157000810378008faa9700000478000b003700e1
:101580008103780007034700a40020001100090030
:101590008406d800010278008006780000c3b300fa
:1015a000004b42000201e9008502e9008700e900e2
:1015b0000d00e000f2ff3a000200e000f0ff3c0006
:1015c00085af9f000800780001024700b2c2b30057
:1015d0000300e00001003200d2c2b300024a7800ea
:1015e0000101e90082004700af7997000302fb0088
:1015f0001404b10053c6b300f90f520001003e00bd
:1016000053c4b300834878000faa97000482e9000e
:1016100084af9f00820f560001003d003b0a070087
:10162000dfa2970063806200e20f500015003a00cd
:101630000fab97000600e000120034000e007800a7
:10164000390a0700060037008fab97008700470074
:101650008080400000014700924878000000e900c7
:10166000efa09700810f5000f7ff3d0001004700f9
:101670000fa9970001032000030907000001eb00f8
:10168000c2a79f000e007800270a07005fa29700fc
:10169000cfa19700000178008e0078003f98970056
:1016a000790207004f0778004f06be004f05be00c5
:1016b0004f04be002f04b1000000060010002000ff
:1016c000e48f460033fe3d0090b79f0053c6b30041
:1016d000e3cf9f0053fe37000d00e00036fe3500db
:1016e00090b79f0046fe37000200fa00889fbe00b8
:1016f0008a9fbe008005780001047800020078000f
:10170000180190002805900098007800b1bf9f0054
:10171000b80490000200e000020035000110a100b2
:10172000b1bf9f00ea815700820020008a00780044
:10173000100278009002900020039000b003900007
:10174000080078004b0007003fb99700f0006100e7
:10175000040032000000e9008080440002c3b300ae
:10176000824878003fb99700e80061000400320029
:101770000000e9008080440002c2b3008248780083
:10178000480190000201e9000001510080804400fe
:101790003fba97008a0178000b0078003a020700f0
:1017a0009b0090000188a300040032009800900084
:1017b000810f500001003d00010078004f05be0080
:1017c0004f04be000080fa0000000600ea874700d0
:1017d000889fbe008a9fbe008e1f7800000478009c
:1017e000030078007287570084e2260055c7260060
:1017f000049fbe00c3962200030f78006c87570039
:10180000004feb0011059000a104900091057800b5
:101810000200e000020032000207780001003700f9
:10182000728757000000e00002003a000e007800c6
:10183000bd0907000a00e000030035008a0f5000d0
:10184000010036000a0078000b0278008901780058
:10185000000178008e007800080078000a02070076
:101860004f0778004f05be004f04be00af00b10027
:1018700000000600f4874700889fbe008a9fbe00d4
:101880008c9fbe008e1f78000605be000404be00bb
:1018900081bf9f0082b79f00f3b79f00b000900008
:1018a000e1b79f001301780092b79f009006900067
:1018b000400090000000e900000678000d00e00004
:1018c00001003d001d002000efb1970000804100a5
:1018d0000048eb001e0020001f0037000c06e90046
:1018e0000fb09700cf80de006109b900a0b79f005c
:1018f000b1b79f00c2b79f00d3b79f000203be00dd
:101900000002be000800be000a01be003b13070033
:1019100000077800efb097000c80400003c3b300cd
:10192000034847008d06e9000fb897000000e90062
:1019300080bf9f002fb29700bfb297004fb39700b0
:10194000dfb397000800be000a01be0024130700a1
:101950000205be000004be000c00e0000d003400d3
:10196000e00f5400e08f5c00e00f5d00e08f5d0051
:10197000daff3a000d00e000d8ff3c008fb8970076
:101980000100e000030034001fb197000218a3001b
:10199000d2ff3a000e00e00002003a00ffb19700cb
:1019a0001340a1000c0078004f0778004f06be00de
:1019b0004f05be004f04be004f01b10000000600fd
:1019c0000200fa00889fbe008a9fbe0000057800d2
:1019d000010478000200780018019000a80490002b
:1019e00098007800b1bf9f00b80590000200e000a9
:1019f000020035000110a100b1bf9f00ea8157002d
:101a0000a200200089007800100278009002900067
:101a100020039000b00390000800780095ff0700b5
:101a2000480190000201e90000015100808045005a
:101a30003fba9700890178000a00780092010700f8
:101a40009a0090000188a3000400320098009000e2
:101a5000810f500001003d00010078004f05be00dd
:101a60004f04be000080fa0000000600fa8747001d
:101a7000889fbe008a9fbe008c9fbe008e1f78008c
:101a80008004780001047800820578001801900035
:101a90002805900018077800b80090000200e000c8
:101aa000020035000e10a1000100370012002000d6
:101ab00070006700e0b79f000b0032001b02780047
:101ac0009b0290002b039000bb039000e00f52009c
:101ad000e08f5a00e00f5b00e08f5b0002003200f5
:101ae0008a86e900010037008a067800e80267006c
:101af000f5b79f00010032008d06e9001b02780057
:101b00009b0290002b039000bb039000e4af9f006a
:101b1000f5af9f0086b79f0097b79f0048069000db
:101b20000c06e9000c8040000048eb00efb2970083
:101b30007fb297008903780081047800d8af9f00b6
:101b4000020478008bbf9f008a0578000345780067
:101b50002b0037000c06e9006fab97006f006300a5
:101b6000e90f500002003c000003b0000100370004
:101b70007005b0000a03fb001604b100f90f530012
:101b80000c003e00000378000650a0001606b100cd
:101b9000f90f530007003e00b4b79f00a5b79f00a0
:101ba000c7b79f003a090700cfb39700afb29700bd
:101bb0003fb297000c834400004b78000804e90012
:101bc0008d06e9006fa89700ffa897000fb1970056
:101bd0009fb19700460020008301d1000281d3000d
:101be0008180d3000080d3000603e900faff3a00a9
:101bf000e0af9f00f1af9f0082b79f0093b79f00b7
:101c0000e10f56000f0034006fa89700ffa897005f
:101c10000fb197009fb19700e00f5000e08f580080
:101c2000e00f5900e08f5900caff3a000800e000b9
:101c3000c8ff3c000d00e000020034000e18a300b5
:101c4000c4ff3a0089007800f4b79f008704780049
:101c50005fac97008a4178000b0578008fbd970034
:101c60000500e000140032001b0278009b02900087
:101c70002b039000bb039000e4af9f00f5af9f00e3
:101c800086b79f0097b79f00e00f5200e08f5a0081
:101c9000e00f5b00e08f5b00070032000c06e900fc
:101ca0000c804000034878000c06e9000c804000de
:101cb00002c3b30002487800ffb297000500e000bd
:101cc000040032000c06e9000c80400002c2b300a0
:101cd00002487800480190000201e9000c0151001f
:101ce0008c8040000e0278008a017800090078009c
:101cf000e5000700990090000188a300040032006d
:101d000098009000810f500001003d000100780014
:101d10004f0778004f06be004f05be004f04be00bf
:101d2000af01b100000006008201780001017800d7
:101d3000f1ff2700eb083700be0637003c00fa0031
:101d40008f017800c303b1001d0009008019eb006a
:101d5000c0a79f0080b79f00c0e92000b0b79f00d8
:101d600040fc2f000f004000d00807000080fa0060
:101d700000000600881f780000047800000820009a
:101d8000808f50001a00350010082000808f50000e
:101d90000d00340030082000808f500014003a00fd
:101da00092007800688050000009780010027800e6
:101db0009002900020039000b0039000049cbe00ad
:101dc0000694be000800370092027800648052003a
:101dd000000978009000900010007800b30e070012
:101de000009cbe000294be001000200001003700dd
:101df0000000eb004f04780000000600840820007b
:101e0000848f50001d0032000d003c00140820009b
:101e1000848f50002700320002003c00040820009c
:101e20000400370024082000848f50003600320060
:101e300044082000848f500047003a003a003700e1
:101e4000040a2000848f50002900320004003c0066
:101e500004092000848f50003f003a002a00370018
:101e6000020c2000828f500033003200020f20004d
:101e7000828f500038003a002f0037009380e9002d
:101e80000200e00005003200810978001102fb0029
:101e9000cfa2de00612bb9002c0037008109780049
:101ea000114278000482fb008002eb006033b8002e
:101eb0002600370013027800e40052000200e00020
:101ec000060032008109780011027800910290002a
:101ed0004fabde00860378001c00370081097800d4
:101ee00011027800910290006033b80017003700ab
:101ef0009380e9008109780011027800cfa2de000a
:101f0000612bb9001100370093027800e88052007d
:101f1000810978001102780091029000210390005d
:101f2000b1039000090037009380e9000200e0004f
:101f300002003200efff37009380e900810978004a
:101f4000110278008002eb006033b8000498be00f4
:101f50000690be00100005000000050044082000a7
:101f6000848f50002500320008003c001408200037
:101f7000848f50001400320024082000848f500009
:101f800024003200040820000c003700040920005f
:101f9000848f50001f00320004003c0084082000a1
:101fa000848f500024003a000e003700040a2000fd
:101fb000848f500011003200040c2000848f5000e8
:101fc0001d003a000d0037009380e9008109780078
:101fd0009100780001087800cf91de008288be0071
:101fe000140037009380e90081097800910078009f
:101ff00001087800824878000e0037009380e900dd
:102000008109780091007800010878008208780042
:10201000080037009380e90081097800910078007a
:10202000010878006112b900612bb9008498be00e4
:102030008690be001000050000000500889fbe00cd
:10204000000478004800900082047800808f5400db
:1020500001003600800478000901780058009000e3
:1020600082060700580090000900400050049800c4
:10207000c800900089845000490498000048eb0093
:102080004f04be0000000600f2874700889fbe0094
:102090008a9fbe008c9fbe008e1f7800800478004f
:1020a000010578000204780083057800610762006a
:1020b00002003a008b0f5400080039000801780034
:1020c0008a00780009007800910b07008b0f5400fc
:1020d00002003900880578001e0037000886550088
:1020e0000c017800f00f56000100360002012000bc
:1020f000010220007e805700630607008c067800ee
:102100000500370002012000fe805700090078001a
:102110007f0b0700f0865600ef8f5600f9ff3e0058
:102120004461de0000ff2f008091b9000c014100e6
:10213000fe80570009007800750b07000e00e000d4
:1021400004003a00080178008a007800090078004d
:102150006f0b07000b0078004f0778004f06be009a
:102160004f05be004f04be002f01b1000000060065
:1021700000000500000005000000050000017800d7
:102180000040eb008080fb0081804000031c2100a8
:1021900081814100134278000404e00004003a0009
:1021a000101c210081004000114078000000060052
:1021b00092017800934f520005003a00101c210054
:1021c00081004000114078000309e8000100370059
:1021d0000040e800ea4f5000eaff36000000060029
:1021e000f6874700889fbe008a9fbe008c9fbe0076
:1021f0008e1f7800000578000104780083057800c0
:10220000040678000000eb00c0b79f008080eb0060
:10221000d1b79f00e0b79f00f2b79f0000082000f1
:1022200080bf9f0098007800010078008004eb00d8
:10223000010037008904e800304178000204e00022
:102240000300320053c2b300834f5100f9ff3a003c
:102250000900e00004003200090178000a0078005b
:102260002b0b0700188c44001807780050c2b300ed
:102270009e4f10003f013a000e07e8000e0c780058
:1022800010003700cfb097000100a0000b0037000e
:10229000cfb097000110a00008003700cfb0970022
:1022a0000120a00005003700cfb097000130a0004a
:1022b00002003700cfb097000140a000c1b79f00d7
:1022c000000ce8001800780090407800b2c2b3001b
:1022d00082cf5000f1ff320007003c0002c2b30081
:1022e00082cf5000f0ff320032c2b30082cf5000e4
:1022f00007003a00efff3700d2c2b30082cf500090
:10230000e0ff320002c3b30082cf5000e0ff320092
:10231000a2c2b30082cf50000d003a00000ce800ca
:102320001c80e900000e780010007800e0b79f00e4
:102330000000e0000f003d00cfb097000100a200b8
:10234000c1b79f000000ea00e0b79f000900370016
:1023500064050700e0b79f0001003700000ce800ab
:10236000180078009000fb000103b100e98f5000d5
:10237000faff36004fb097000008a30002003200b9
:102380000010a100c0b79f0018007800e1c2b300a0
:1023900090cf100016003a008000eb00d1b79f00ec
:1023a0000000e800000c7800a1c2b30090cf10003c
:1023b00006003a00000ce8001c80e900000e7800de
:1023c00010007800d0b79f000900370045050700ce
:1023d000d0b79f0001003700000ce800180078001b
:1023e0009000fb000103b100e98f5000faff3600b6
:1023f0000800780061ff0700804678001800780028
:102400001000fb001b07070091062000810f500001
:102410003800320012003c0041062000810f5000bd
:10242000340032000a003c0011062000810f5000e9
:102430002000320031062000810f5000a000320041
:1024400051022000810f5000bc003a00b400370058
:1024500071062000810f5000b8003c008800370052
:1024600001072000810f50005c00320007003c0093
:10247000e1062000810f50007a003200f1062000b2
:10248000810f5000ad003a0039003700510720009d
:10249000810f50002700320081072000810f50007b
:1024a0004200320031072000810f5000a3003a00a3
:1024b0008f0037008d80fb000c01780000fe2f009c
:1024c0000f0040002bfe07000000e000a8003200d3
:1024d00018007800000ce8009041780002fe2f0000
:1024e0000f014100f88057000a00780021ff070023
:1024f0000e0037008d80fb008c0178001200200058
:1025000000fe2f000f0040003cfe07000000e0002e
:1025100097003200180ce80002fe2f000f01410066
:10252000f88057000a0078003ff9070080844400d3
:10253000900037008d80fb008c0178000001eb00db
:1025400000fe2f000f0040002cfe07000000e000fe
:1025500087003200180ce80002fe2f000f01410036
:10256000f88057000a00780015fd0700efff3700dc
:102570008d80fb008c0178000001eb0000fe2f0035
:102580000f0040001dfe07000000e0007800320050
:10259000180ce80002fe2f000f014100f8805700e0
:1025a0000a00780050fc0700e0ff37008d80fb0038
:1025b0008c0178000001eb0000fe2f000f004000ae
:1025c0000efe07000000e0006900320018007800ed
:1025d000000ce800904178001c0037008c01780066
:1025e0000001eb00010f200000fe2f000f00400053
:1025f00002fe07000000e0005d003200180ce80059
:102600000fb097009fb097002fb19700bfb1970010
:10261000e00f5000e08f5800e00f5900e08f5900a4
:1026200009003a00cfb597006fb49700801b2100d6
:102630003d0607000b027800880178000001780051
:10264000811b21004700370083c7b30002fe2f0023
:102650000f014100f88057000a00780003fd0700d1
:10266000b2ff37000b8144008d80fb008c017800a5
:1026700000fe2f000f00400038fe07003c0037002e
:102680008d80fb000c01780000fe2f000f00400041
:10269000b8fd07000000e0003500320018007800a7
:1026a000000ce8009041780002fe2f000f0141006d
:1026b000f88057000a00780038f907009bff3700c0
:1026c00000c8b30080cf560029003a00180ce8007b
:1026d0001c80e900000e780010407800e0df9f00c9
:1026e00013002000e2fd2f000f0141000800370019
:1026f00000c8b30080cf56001d003a00180ce80057
:102700001c80e900000e78008001eb0010017800c9
:10271000f88057000a0078002cfc070083ff370080
:1027200000c8b30080cf560011003a00180ce80032
:102730004fb29700efb19700080037000e0c7800f9
:102740000000eb00c0b79f00e0b79f000080eb00e7
:10275000d0b79f000002eb00840178001200200037
:10276000e11b21000a00780047fe07006fff3700d9
:10277000180ce800090078004f0778004f06be00eb
:102780004f05be004f04be006f01b10000000600ff
:102790008200fa00889fbe008a1f7800000578003a
:1027a00082047800c13f9f000004eb001000370056
:1027b0000902780088017800a2f72f000f0141007c
:1027c00081f72f008f8040000a00780084fe070008
:1027d00008004000880f500004003d00b0042000b5
:1027e000508f88000084eb0004003700000478005c
:1027f0004f3897001004e000edff3a000800780021
:102800004f0578004f04be000080fa00000006006b
:102810000200fa00889fbe008104780082007800e0
:102820000301780031049000b1060700e10f400079
:102830000b003200a2002000e6805700080078005c
:10284000fe050700809cbe008294be0010002000a0
:10285000dfb89700810f540001003a00e0ff2f001d
:102860004f04be000080fa0000000600ea8747001f
:10287000889fbe008a9fbe008c9fbe008e1f78007e
:10288000000478000105780083bf9f00a205900036
:1028900042009000e0b79f00b204900083007800ef
:1028a0001106780008007800be0107008fb8970075
:1028b0008c0840000b00e00004003a006fb0970065
:1028c0000000e900f0b79f0001003700fbb79f0050
:1028d000ad0020000007eb001b00370078089000d7
:1028e000b8109000810f500003003100b085fb004c
:1028f000700c98000800370008007800eb0407000f
:1029000080057800e18f450003003a000c00e000ec
:102910005e003c00710037000c00e0000c003a0043
:10292000b0022000808f550003003200d00220004a
:10293000808f550006003a008b4c78008fb89700c6
:102940009108e8001e0020000e06780048003700bd
:102950008e0f56002a003a000c07e800ea8f560056
:1029600004003a0000032000808f550023003a0045
:1029700020003700e88f560020003a008b007800d6
:102980000150a00080072000808f50001b003a00fb
:10299000f808900038109000808f5000030031003c
:1029a0003180fb00710c98000200370008007800ad
:1029b000be040700b81090000100e00003003200e0
:1029c000f80890008100e900710c9800eb03070003
:1029d0000000e000140032000c8644000b4e78002a
:1029e0000fb897001008e8000e0678000d012000cf
:1029f0001f0037008d002000010037000007eb00aa
:102a000000fd2f000b004000e90f50000d003600c4
:102a1000f08f560004003a000b007800d70307003f
:102a20000000e0000d003a00381090000000e000c7
:102a300016003200780890000000e900700c980041
:102a400012003700e88f560004003a00700320009f
:102a5000808f550001003400ad0020000c80440040
:102a60000b4878000c06e8008fb897009108e80042
:102a70007fb09700800f560004003d00efb0970034
:102a80000100e900800f560094ff35000c864400d9
:102a9000004eeb00ea8f560005003a000d01780069
:102aa000f68057000900780064050700040037002d
:102ab0000d017800f6805700090078005b050700db
:102ac000009dbe000295be001b0020005fb0970075
:102ad000808f540001003a00ebff2f000b007800bc
:102ae0004f0778004f06be004f05be004f04be00e2
:102af000af00b10000000600e6874700889fbe00d7
:102b00008a9fbe008c9fbe008e1f78000004780054
:102b1000010578000306780022079000420090002b
:102b200080bf9f00b20490009c05780008007800e8
:102b30001c0107000b0e40000e00e00002003a00ee
:102b40008fb897000107e900890678008005eb003f
:102b50001c003700f808900038109000808f50005b
:102b6000030031003180fb00710c98000700370032
:102b7000080078004d040700e10f400003003a0010
:102b80000b00e00015003c002100370001fd2f0084
:102b900080804000e78f500007003600381090001a
:102ba0000000e0000d003200780890000000e9000d
:102bb000700c980009003700805e78008b05e800f3
:102bc0001c0ee8008e8f550004003d008fb8970062
:102bd0000100e900808f5500deff35008b85440041
:102be000804deb0082002000f28057000900780041
:102bf0000e050700009dbe000295be0010002000db
:102c0000ffb09700818f540001003a00e0ff2f00d1
:102c10004f0778004f06be004f05be004f04be00b0
:102c20006f00b10000000600800078001000200056
:102c300002022000828f500004003200e980500020
:102c4000e48f5000010036000000eb000000060099
:102c5000889fbe008a9fbe008c9fbe008e1f78009a
:102c60000004be000205be00840678000a00e000f1
:102c7000040032001b06780008007800c900070035
:102c80008c0d4000290790008004eb0022003700e3
:102c900078089000b8109000810f500003003100b8
:102ca0003086fb00700c98000800370008007800a0
:102cb000fe03070000067800e10f460003003a001b
:102cc0000900e00018003a00210037000a00e00087
:102cd0000b0032000c007800d3ff07000000e0007a
:102ce00007003200381090000000e0000e003200b3
:102cf000780890000000e900700c98000a00370086
:102d00000d00e00002003200098046000c48780007
:102d10008904e8009b0de8000e00e000dcff3200b3
:102d20008e8f5400daff35000d00e0000400320001
:102d30000a00e0000200320089864600804eeb0067
:102d400009f0a7008904ea000906ea004f66de00e0
:102d50000c0078004f0778004f06be004f05be00fc
:102d60004f04be00000006000200fa00889fbe006b
:102d7000810478008200780003017800310490001b
:102d80005b050700e10f40000b003200a2002000ad
:102d9000e680570008007800a4040700809cbe006d
:102da0008294be0010002000dfb89700810f54000d
:102db00001003a00e0ff2f004f04be000080fa003f
:102dc00000000600e8874700889fbe008a9fbe007b
:102dd0008c9fbe008e1f78000004780001057800eb
:102de00083067800a205900042009000f0b79f0093
:102df000b20490001d067800080078006900070002
:102e00008c0e40000b00e00004003a00ffb0970079
:102e10008100e90081bf9f00010037008bbf9f0048
:102e2000090778000006eb003900370078089000a9
:102e3000b8109000810f500003003100b085fb00f6
:102e4000700c98000800370008007800970307000e
:102e500080057800e18f450003003a000c00e00097
:102e600032003c003e0037000b007800c302070030
:102e70000000e00023003a00e10f56001a003a007b
:102e80000b0078007b04070081072000810f5000b1
:102e900015003a0000c3b300994f100012003a0029
:102ea000f808900038109000808f50000300310027
:102eb0003180fb00710c9800020037000800780098
:102ec0007a030700b81090000100e0000300320010
:102ed000f80890008100e900710c9800a702070033
:102ee0000000e00007003a00381090000000e00009
:102ef0000e003200780890000000e900700c980085
:102f00000a0037000b5f78000c06e8009d0ee80011
:102f10000fb89700800f560004003d00ffb09700e7
:102f20000100e900800f5600c0ff35000c86440008
:102f3000004eeb0002012000f480570009007800e9
:102f40003a040700009dbe000295be001b00200051
:102f50006fb09700808f540001003a00ebff2f0004
:102f60000b0078004f0778004f06be004f05be00eb
:102f70004f04be008f00b100000006008000780002
:102f80001000200002022000828f50000400320056
:102f9000e9805000e48f5000010036000000eb0093
:102fa00000000600889fbe00000478008004eb004b
:102fb0000b003700f1ff07000000e00007003a00b7
:102fc000381090000000e0001000320078089000f7
:102fd0000000e900700c98000c0037008904e8003c
:102fe000f808900038109000808f500003003100e6
:102ff0003180fb00710c9800eeff3700080078006c
:103000002a030700e10f4000eaff3a0009007800b8
:103010004f04be0000000600889fbe008a1f780093
:103020000004be00190078001000fb00d3ff070069
:103030000005eb000000e000090032000800780005
:10304000d8ff0700000578001900e800800c780020
:103050001000fb00c9ff07000000e000faff3a0083
:103060000a0078004f0578004f04be0000000600fb
:103070001801fa00889fbe008a9fbe008c9fbe0088
:1030800000057800010478008305780004067800c4
:1030900068004700040009000018eb007207980060
:1030a00000082000000f9800880078000a007800cf
:1030b000d9ff070080067800190037007a089000d1
:1030c000ba109000810f500003003100b084fb0063
:1030d000700d9800050037000a007800f302070021
:1030e00080047800e18f4400070032001800780067
:1030f0001000fb00808f5400030032003a10900053
:10310000e9ff2f00100137009b0de800180ce800c4
:10311000880078000a007800bfff0700808646001c
:1031200018007800904078000104e00003003200ad
:1031300052c2b30082cf5000e0ff3a009b8d4600a0
:1031400051c2b30090cf10008b013a000000e8009c
:10315000000c78008000eb0061079800210f9900b7
:10316000a1c2b30090cf100003003a00000ce800a9
:1031700011002000210f990018007800d9010700e4
:10318000600798006102b900612bb9000a0078005d
:10319000a102070001003700000ce80018007800c9
:1031a0009000fb000103b100e98f5000faff3600e8
:1031b00008007800f1fb07008046780018007800ce
:1031c0001000fb00ab03070091062000810f5000a8
:1031d0003900320015003c0031062000810f5000fc
:1031e000a10032000a003c00b1052000810f500010
:1031f000db00320011062000810f500088003200f1
:1032000051022000810f50005a013a00ba003700e5
:1032100041062000810f5000190032007106200085
:10322000810f500053013c007d0037000107200052
:10323000810f50005900320007003c00e1062000d9
:10324000810f500066003200f1062000810f50000f
:1032500048013a003d00370051072000810f50001f
:103260002600320081072000810f50004500320007
:1032700031072000810f50003e013a008d003700d9
:103280008b017800680147008e0078000a00780002
:103290005ffd0700800478000900e0003901350077
:1032a000180ce8008004eb002e0891000000e000fc
:1032b00034013a000d0037008b01780068014700a7
:1032c0008e0078000a00780068fd0700800478000e
:1032d0000900e0002b013500180ce8008004eb0029
:1032e000ae0891000100e00026013a008d80fb004d
:1032f0008c01780012002000100037008b0178004c
:10330000680147008e0078000a00780096fe0700ea
:10331000800478000900e0001a013500180ce8006c
:103320008004eb002e0891000000e00015013a0037
:103330008d80fb008c017800090178000e00780078
:10334000b0030700800478000e0137008b0178007d
:10335000680147008e0078000a007800e6fd07004b
:10336000800478000900e00006013500180ce80030
:103370008004eb00ae0891000100e00001013a007a
:10338000ebff37008b017800680147008e00780062
:103390000a0078008bfe0700ddff37008b01780004
:1033a000680147008e0078000a00780085fe07005b
:1033b000800478000900e000f2003500180ce800f5
:1033c0008004eb00ae0891000100e000ed003a003f
:1033d0008c01780009017800010f2000d7ff370029
:1033e000180ce8001b007800cf80de006109b900ee
:1033f000009fbe000297be008004eb002e089100e3
:103400000000e000df003a008d80fb008c017800b6
:10341000090178000e0078007a030700d900370010
:103420008b017800680147008e0078000a00780060
:10343000da000700800478000900e000d1003500c0
:10344000180ce8008004eb00ae0891000100e000d9
:10345000cc003a008d80fb000c0178000e00780053
:1034600045030700b7ff370000c8b30080cf560000
:10347000c0003a006e0090000000e00002003a0038
:103480001000200060079800180ce8000002eb0014
:103490002e0891000000e00003003a001c80e900c3
:1034a000000e7800100278008b0178000001eb001c
:1034b0000d00370000c8b30080cf5600ad003a00c1
:1034c000180ce8000002eb00ae0891000100e000db
:1034d00003003a001c80e900000e7800100278001a
:1034e0008b01780012002000e80047000a007800f5
:1034f000d7fd070093ff370000c8b30080cf560008
:103500009c003a00180ce800fa0890003a1090006d
:10351000808f5000030031003180fb00710d980056
:10352000020037000a007800e00107005102200085
:10353000810f500002003a009b0de8009000370018
:103540003a1090008004eb000000e0008d00320093
:103550007a0890000000e900700d9800890037009b
:1035600000c8b30080cf560082003a008006eb000e
:103570002e0891000000e00003003a001c80e900e2
:10358000000e7800900678001800e800000c780023
:103590008004eb00e1c5b30090cf100002003a00b8
:1035a000000ce800190020001210200089007800ab
:1035b00072004700340107000040eb0020579800dc
:1035c0001800780090407800d2c2b30082cf50003b
:1035d00005003a00000ce80010c0b300094050009c
:1035e00000c7980029003700d2c5b30082cf500031
:1035f00026003a00000ce80010c0b300094050005b
:1036000000f79800210037000004e0002400320099
:10361000d3c2b300834f500015003a001800900049
:10362000104078000004e00011003200814f50008b
:103630000f0032000201e800020c780078b8970011
:103640001000fb00f200470000804000030037003c
:103650000000e80011c0b30009c85000f2014700a3
:10366000830150009200fb00818f5100f8ff35006c
:10367000180078009000fb00f380400012c0b300f7
:103680000941510002f77800000ce80018017800a9
:1036900012407800d1c5b300814f5000daff3a00e4
:1036a0000d00e000180032008d0078000006eb00ed
:1036b00003003700895878000c06e8009b0de800ed
:1036c0007a0890003a119000820f500003003100f8
:1036d000b084fb00700d9800050037000a007800e8
:1036e000310f99007101070080047800be08910035
:1036f000738044006e4078000004e000edff3a0063
:10370000100037009b0de8007a089000ba10900076
:10371000810f500003003100b084fb00700d980051
:10372000030037000a007800600107008004780079
:10373000738044006e4078000004e000f1ff3a001e
:103740000006eb003a1090000000e0000300320099
:103750007a0890000000e900700d98000c00e0006d
:10376000040032000d00e000020032008c864600aa
:10377000804eeb00180ce800e18f4400010032009d
:103780008004eb00090078004f06be004f05be0024
:103790004f04be000080fa00000006000000050093
:1037a000000005008400fa00889fbe008a1f780090
:1037b0000005780082047800b13f9f000000eb0014
:1037c000c03f9f00000478000d0037000902780018
:1037d00083f72f008f814100a2f72f000f014100d6
:1037e00061f72f008f8040000a00780020fe07005c
:1037f000800178000300e000040035000304440069
:103800003f3897001004e000f0ff3a00e18f4100dc
:1038100003003a000800e00001003a0003047800c9
:10382000080078004f0578004f04be000080fa00c1
:1038300000000600889fbe008a9fbe008c9fbe00cd
:10384000800578008106780002067800eb0c900075
:10385000081020000c044400080178008000eb00f0
:1038600009007800520007000000e000010032006b
:1038700009045000080578008c0f54000100360040
:103880000c0578000a017800890078000d007800a6
:10389000760007000a804400f00d98000884440078
:1038a00088159800e80d98000a0078004f06be00c1
:1038b0004f05be004f04be000000060080007800e7
:1038c0001000200002022000828f5000040032000d
:1038d000e9805000e48f5000010036000000eb004a
:1038e00000000600889fbe008a1f7800000578004f
:1038f0000a047800984478000805e8000900fb00f5
:10390000eeff07000000e000f9ff3a00b0c2b3008c
:1039100080cf540005003200d0c2b3008000eb001d
:1039200080cf540005003a00020037008000eb0011
:1039300001003700110020000804e8000000eb003f
:1039400003003700ea00b900020050000003b00095
:103950003801fb0003fd2f0082814100e98f5100f7
:10396000f8ff36000100e00001003a000000ea0024
:103970004f0578004f04be0000000600800078006c
:1039800002fd2f000101410010002000e90f51004d
:10399000050036000150a0001106b100e58f50006f
:1039a000010036000000eb0000000600f3ff3700c6
:1039b0008180fb00010037000201e90080017800ee
:1039c0000008a300060032000200e00022003200de
:1039d0003082fb00810f5200f7ff3a0003003700ee
:1039e0000000eb000200e0001d0032001380fb002d
:1039f000810f50001b00320016102000868bb9008a
:103a0000010037000281e90003007800e10f510056
:103a10000a00360033026b00f5ef2f00848242006b
:103a20000482ea00048262000508280005026200a0
:103a3000f4ff3200010037000201e9008001780044
:103a40000200e000050032003082fb00810f5200ce
:103a5000f9ff3a0003003700000005000000eb000a
:103a600000000600030078000000060080017800d6
:103a700002003700b15978000201e9000200e000bd
:103a8000fcff3a0000000600889fbe008a9fbe002f
:103a9000800478000200e0005b0032000140780002
:103aa000814c780082814400f1f99f00e20f5100bf
:103ab0005500360091449800a1449800e1f99f0018
:103ac000d1f99f00e60f51004f003600b144980035
:103ad000c1f99f00e80f51004b0036000905ea00cc
:103ae000630565000a8444000a055100c1ff2f00e8
:103af000010565000080fb008000eb001210200033
:103b000013102000f4070700008cbe000a014400d7
:103b100060b99f0071b99f00e80f55003a00360068
:103b20002004980031049800400498005104980043
:103b300020b99f0031b99f0040b99f0051b99f0043
:103b4000f80f5500300036006004980071049800aa
:103b5000000c9800110c9800200c9800310c980073
:103b6000400c9800510c980020b19f0031b19f008b
:103b700040b19f0051b19f0060b19f0071b19f00a3
:103b800000b99f0011b99f006401640078014100f1
:103b900002044400020555006011b8000203be0093
:103ba0000002be000403be006022b80000007200e4
:103bb000818072000201730083817300100037005e
:103bc000009cbe000294be0040049800510498007e
:103bd0006204980073049800000c9800110c98007f
:103be000220c9800330c9800400c9800510c98005f
:103bf000620c9800730c98000a02b1000802b00031
:103c0000ff0f5500eeff3e00090078004f05be0093
:103c10004f04be0000000600889fbe008a9fbe00c1
:103c2000441098005510980066109800771098007e
:103c3000f00890002004900001045400cfc4de007e
:103c4000614db90008189800191898002a189800b2
:103c50003b189800e00f5200e08f5a00e00f5b0025
:103c6000e08f5b000c00320000149000010454004f
:103c7000cfc4de00614db9000440e10005c8e10099
:103c800006d0e10007d8e1000300340004824000c0
:103c90003410980002003700801090003110980016
:103ca0004f05be004f04be00000006002800fa00c9
:103cb000889fbe008a1f780000047800f8089000f2
:103cc0002800900000805000081a9000981a900078
:103cd000281b9000b81b9000cf80de00040240003b
:103ce000858248000683480087834800481090007a
:103cf000d810900068119000f8119000e00f50006b
:103d0000e08f5800e00f5900e08f590005003200a5
:103d10000020e10001a8e10002b0e10003b8e100e9
:103d20000d003d0008007800d4b79f00e5b79f0064
:103d3000f6b79f0087bf9f00c1010700800478008d
:103d40005fb29700efb297007fb397008fbb9700e9
:103d50000900e00016003d0078089000a8009000df
:103d6000808050004f89de000482400085024900b7
:103d70000603490087034900041c9800151c98009d
:103d8000261c9800371c980030149800f0ff2f0074
:103d9000f1ff2f000001be0040149800511498005c
:103da00062149800731498008084eb00520037006e
:103db00061004200e0804a0060014b00e0814b005e
:103dc00090bf9f00a1bf9f00b2bf9f00c3bf9f00d5
:103dd00048129000d812900068139000f8139000d9
:103de00094b79f00a5b79f00b6b79f00c7b79f00c5
:103df000e00f5200e08f5a00e00f5b00e08f5b00a5
:103e000028003200780d9000081190000a0151003e
:103e10006112b900612bb900d4af9f00e5af9f00dc
:103e2000f6af9f0087b79f001fb09700afb0970015
:103e30003fb19700cfb197001fba9700afba970074
:103e40003fbb9700cfbb970004005000858058000f
:103e5000060159008781590090af9f00a1af9f00d4
:103e6000b2af9f00c3af9f005faa9700efaa970071
:103e70007fab97008fb397000020e10001a8e1001d
:103e800002b0e10003b8e100060034009fb29700e1
:103e90001fbb970006815200820045003114980034
:103ea0000200370088139000371498002801900012
:103eb000f8089000810151001fba9700afba97002f
:103ec0003fbb9700cfbb97004f98de0004824100b4
:103ed000850248000603480087034800041c980038
:103ee000151c9800261c9800371c9800828f5000e3
:103ef00001003e00f9f89f00090078004f057800a6
:103f00004f04be000080fa0000000600881f780001
:103f10000004780008007800830307000800780098
:103f20004f0478000000060080007800040037008d
:103f30003104e00002003a000000510000000600d9
:103f4000010178000108a300f9ff3a00810178001f
:103f500031017800f4ef2f00020242000281ea00f2
:103f6000020162000408280004016100f7ff32002a
:103f700083007800010178003104e000fdff3a0081
:103f800000005100000006004400fa00889fbe00b7
:103f90008a1f78000004be000205780094bf9f00cd
:103fa000a5bf9f00b6bf9f00c7bf9f000000eb00ea
:103fb000c09f9f00a8af9f00d89f9f000080eb008c
:103fc000b0af9f006022b8006033b80060fb2f00e4
:103fd0000f00400010ff07001fba9700afba97000c
:103fe0003fbb9700cfbb9700120020008a007800eb
:103ff00060fb2f000f004000300107000900e000c7
:10400000060032003fb29700afaa97000482420038
:10401000df9a970005025200840c44004f05780097
:104020004f04be000080fa0000000600f4ff2f00dd
:10403000f5ff2f000403be00d3ff37006022b80055
:104040000600200007002800cfff3700f4ff2f00f4
:10405000f5ff2f006033b800cbff370004002000cd
:10406000050028006033b800c7ff3700f3ff3700b2
:10407000eeff3700f1fb2f0080804000f98f5000e9
:1040800001003e000050a00000000600f9ff3700cc
:10409000f1f92f0080804000f98f500001003e00b0
:1040a000f005b20000000600f9ff37000200fa0038
:1040b000881f780000047800e2bf9f0064815700e9
:1040c00008007800b7fd0700980090000148a300a1
:1040d000010032000080eb004f0478000080fa00fd
:1040e00000000600f28747008e1f78000202780069
:1040f000030178000000e0000200320000077800b1
:1041000001003700728757008002eb000100e000d9
:10411000010032008102e9007080570006000900aa
:104120000018eb000080eb0080bf9f0023102000f0
:1041300093bf9f00aebf9f00b1bf9f00c5bf9f0050
:104140000100e00003003d00b1042000518f880011
:1041500006003700004feb00eebf9f00debf9f0060
:104160008400780070805700460307004f077800ee
:104170002f01b10000000600881f780013082000fe
:10418000838f50001100320033082000838f5000cd
:104190000400320003082000838f500016003a000c
:1041a0000a0037009280e900010978009100780048
:1041b000100278009002900020039000b00390005d
:1041c0008498be008690be00090037009280e90006
:1041d00001097800110478009000900020019000ff
:1041e000b00190001000780010060700008cbe009f
:1041f00010002000010037000000eb004f047800a1
:104200000000060084082000848f50001d0032004a
:104210000d003c0014082000848f50001e00320066
:1042200002003c000408200004003700240820009d
:10423000848f50001e00320044082000848f5000fc
:104240002a003a0024003700040a2000848f50001e
:104250002100320004003c0004092000848f50003b
:1042600022003a0012003700020c2000828f50001a
:1042700019003200020f2000828f50001b003a000c
:10428000150037009380e9008109780091007800db
:1042900090487800140037009380e9008109780085
:1042a00091007800b0187800a01078000e00370058
:1042b0009380e9008109780091007800100278006d
:1042c0009002900020039000b00390008498be00fc
:1042d0008690be00040037009380e90081097800d1
:1042e000910078009008780010000500000005009b
:1042f000889fbe008a9fbe008c9fbe00000478008d
:104300000205780021069000c1069000b1059000da
:104310009a0478000800780022fb0700090d40008d
:104320000c00e00001003a000d06e9008004eb00fb
:1043300029003700f808900038109000808f500056
:10434000030031003180fb00710c9800070037003a
:104350000800780055fe0700e10f400003003a0016
:104360000900e00021003c00230037000900e000c4
:104370000a003a00b1022000810f50000300320011
:10438000d1022000810f500004003a00804d7800d7
:104390001a0de800190020000f00370001fd2f0062
:1043a00080804000e98f50000700360038109000f0
:1043b0000000e0000d003200780890000000e900e5
:1043c000700c98000900370089804500804878000b
:1043d0008904e8001a0de8008c8f540003003d00aa
:1043e0000d00e900808f5400d2ff3500898445001c
:1043f000804ceb000000eb004f06be004f05be00f6
:104400004f04be0000000600c06090000141e900ba
:10441000814071004160980010019000e40061004b
:10442000040032000240a000120098000080eb005f
:1044300000000600011098007108980000000500b7
:104440000200fa00889fbe0000047800080078008f
:10445000e00307008084eb000000e00009003a0060
:104460009811900012002000e680570008007800a4
:1044700003000100e10f500002003a002ff89700fe
:104480008084fb00090078004f04be000080fa0021
:1044900000000600800078001000200002022000ca
:1044a000828f500004003200e9805000e48f5000f9
:1044b000010036000000eb00000006006f02b000b3
:1044c000889fbe008a9fbe008c9fbe008e1f780012
:1044d000000678000107780082047800d4af9f00be
:1044e000e5af9f00f6af9f0087b79f004002200016
:1044f000800f57007e003e00e10f57007c00320025
:104500007c089000bc109000810f50000300310027
:10451000b086fb00700e9800030037000c00780096
:10452000e2fd0700800678000d007800d9ff070043
:104530000000e000f2ff3a00b0022000808f560039
:10454000050032008002eb0085af9f00d002200002
:10455000808f560010003a00dd82b2000df0a700f7
:104560008d06ea008d06e900cfeede008daf9f00dc
:104570007c089000bc109000810f500003003100b7
:10458000b086fb00700e9800030037000c00780026
:10459000c6fd0700800678000e00e0000200320031
:1045a000f00f570043003a0000032000808f5600b0
:1045b0003d003a007c089000bc109000810f500034
:1045c00003003100b086fb00700e98000300370036
:1045d0000c007800b5fd0700800678008d0078009b
:1045e0000150a00080072000808f50002b003a006f
:1045f0007c089000bc109000810f50000300310037
:10460000b086fb00700e9800030037000c007800a5
:10461000a6fd07008006780080012100008046008a
:104620000e012000f6c0b300904f13008c0036003e
:104630003c1090000000e00003003200fc089000f5
:104640008100e900710e98000900e0000c003200c2
:104650006022b8006033b800d4af9f00e5af9f0080
:10466000f6af9f0087b79f000000e000a201320074
:104670007c0890000000e900700e98009e01370051
:104680006022b8006033b8000c00780062fd0700bb
:104690006000b8006011b800930137000e00e00020
:1046a0009f013200170037000e00e00001003a00c1
:1046b000ae00200080012100008046001080fb0039
:1046c0008e0f50000f0039003c1090000000e000f9
:1046d000030032007c0890000000e900700e980092
:1046e0006022b8006033b8000c0078004afd070073
:1046f00060012000508f88006022b8006033b8004d
:1047000072013700ea0f570055003a000004eb0031
:104710000d0078000c003700ea44b90000044400a2
:104720000803b100fc0890003c109000808f5000fe
:10473000030031003180fb00710e98000200370049
:104740000c00780059fd070001fd2f00808040001b
:10475000e98f500003003e0081992100810f540031
:10476000edff3600800678008004eb006055b8004d
:10477000120037001faa9700afaa97003fab97001f
:10478000cfab97000004420081844a0002054b0031
:1047900083854b007c089000bc109000810f500076
:1047a00003003100b086fb00700e98000300370054
:1047b0000c0078003dfd07008006780005fd2f0005
:1047c0008582460095af9f00e98f52000b013e00a5
:1047d0009099290091992900929929009399210093
:1047e0000040e10001c8e10002d0e10003d8e1008f
:1047f000dd003e00a4002000050020006033b8006a
:104800000800be000a01be00de0707001faa9700cd
:104810008002eb006033b80094af9f00a5af9f000b
:10482000b6af9f00c7af9f000482ea008582ea000e
:104830000683ea008783ea00d4b79f00e5b79f00ac
:10484000f6b79f0087bf9f000400e1000588e100e4
:104850000690e1000798e100c6ff3600c20037006d
:104860000e00e9000e006000030032000004eb00bf
:104870000d00780066003700f770b9004500de00d3
:1048800067006000e1002100008040009000fb0014
:104890000004eb000d007800810478000b00370065
:1048a0000944dd0001047400fc0890003c109000f5
:1048b000808f5000030031003180fb00710e9800a2
:1048c000020037000c007800f8fc0700810121008d
:1048d000810040009180fb008e8f5000030031006a
:1048e000f27f2000820f5400edff36008006780032
:1048f000890078008004eb006055b800f4ff2f00b9
:10490000f5ff2f000403be00010078000000e9005d
:10491000050033008703d1000683d3008582d300ce
:104920000482d300f9ff37000d007800810678007b
:10493000200037000d0178000201e9000500330076
:104940000804d0008984d2000a85d2008b85d20069
:10495000f9ff37000180fb008000eb006011b80018
:1049600008047000898470000a0571008b8571004d
:10497000fc0890003c109000808f50000300310034
:104980003180fb00710e98000a0037000c0078009f
:1049900094b79f00a5b79f00b6b79f00c7b79f0009
:1049a000c2fc0700cfb397003fb39700afb29700a8
:1049b0001fb29700810121008100400091407800e2
:1049c0000181fb008e0f5100610031000440e100c5
:1049d00005c8e10006d0e10007d8e100d5ff3600a8
:1049e0005b0037008ec4b90008844000fc089000ca
:1049f0003c109000808f5000030031003180fb009c
:104a0000710e9800020037000c007800a7fc070028
:104a100081012100810040009180fb008e8f5000b9
:104a200003003100b2712000820f5400edff360008
:104a3000800678008004eb006055b80098af9f00b6
:104a4000a9af9f00baaf9f00cbaf9f001200370005
:104a50000002440081824c0002034d0083834d001c
:104a600094af9f00a5af9f00b6af9f00c7af9f0058
:104a70007c089000bc109000810f500003003100b2
:104a8000b086fb00700e9800030037000c00780021
:104a900086fc070080067800800121000080460027
:104aa00010407800e0cf9f00804278000580fb0036
:104ab0008e0f5000280031006174b8006055b800b6
:104ac0000802be000a03be00f0ff2f00f1ff2f0016
:104ad0000001be00c20607001faa9700afaa9700f8
:104ae0003fab9700cfab97000020e10001a8e100a9
:104af00002b0e10003b8e10017003e000802be006a
:104b00000a03be001fa89700afa897003fa997000f
:104b1000cfa997001b070700efca97000584fb0089
:104b20008004eb006055b8000882ea008982ea0040
:104b30000a83ea008b83ea000400e1000588e100b3
:104b40000690e1000798e100c1ff3600020037003f
:104b500080067800040037001fac9700afac9700c8
:104b60003fad9700cfad9700800121000080460047
:104b70001080fb008e0f5000200031000d007800e7
:104b800009003700fc0890003c109000808f500016
:104b9000030031003180fb00710e980002003700e5
:104ba0000c00780041fc0700810121000100400059
:104bb0001080fb008e0f5000f2ff39002002200011
:104bc000508f88005fab97000608a30007003200f3
:104bd0005fac9700efac97007fad97008fb5970063
:104be0008003eb0087af9f00040037005fac9700a5
:104bf000efac97007fad97008fb597003c10900009
:104c00000000e000030032007c0890000000e90092
:104c1000700e98005fa89700efa897007fa99700f3
:104c20008fb197000040e10001c8e10002d0e1002f
:104c300003d8e1001c0039000008a3000e003a0070
:104c40008fa897000100e0000b003a00200220002e
:104c5000508f88005faa9700efaa97007fab97005c
:104c60008fb3970061025200e0825a0060035b003c
:104c7000e0835b00150037005fa89700efa897005e
:104c80007fa997008fb197000040e10001c8e100c3
:104c900002d0e10003d8e10003003600200220002a
:104ca000508f8800140037008fa89700e18f4000d4
:104cb0000b003a006000b8006011b8000802500014
:104cc000898258000a0359008b835900d4af9f0092
:104cd000e5af9f00f6af9f0087b79f000600370043
:104ce0000800be000a01be00d0af9f00e1af9f00e8
:104cf000f2af9f0083b79f005fa89700efa89700cf
:104d00007fa997008fb197004f0778004f06be002c
:104d10004f05be004f04be006f02b1000000060048
:104d20008e002000cefe370001017800800178005f
:104d3000008268000408a300050032001300370059
:104d400032407800805978000004e00014003200fe
:104d5000030278000208a300f9ff3a00030078007c
:104d6000010037000318780082007800b201780053
:104d7000f5ef2f00838242000382ea000482620082
:104d80000508280005026200f6ff320000027800e4
:104d900031417800025878000204e000fbff3a003d
:104da0000400780000000600881f780040442000be
:104db000ad010700000478000800e0001300320095
:104dc000c20320008000eb00080078002efb0700e3
:104dd00040782200300c980020962200400c980069
:104de000e080220070049800e087220010149800f0
:104df00000c0eb00205c9800400420000800400048
:104e0000200498000040200030049800080078003a
:104e10004f04780000000600889fbe008a9fbe00f5
:104e2000100290008002eb000418a30003003a0077
:104e3000801290007009900082825200d001900090
:104e4000600190000284510008844200cfc4de005b
:104e5000614db9008898be008a90be000000eb004a
:104e60000468a3000400320010002000828f51006b
:104e700001003e000000eb004f05be004f04be00e5
:104e8000000006000200fa00881f78000004780085
:104e9000e2bf9f0064815700080078003cf60700dd
:104ea000980090000148a300010032000080eb0050
:104eb0004f0478000080fa0000000600889fbe00c2
:104ec000000478004800900082047800808f54002d
:104ed0000100360080047800090178005800900035
:104ee000e2fa0700580090000900400050049800c2
:104ef000c800900089845000490498000048eb00e5
:104f00004f04be0000000600100078003fee37009e
:104f1000900190000388a30001003200e7ff3700f2
:104f20000348a30001003a00050207000000060044
:104f300001017800920090000158a30003003a009c
:104f400082007800910107000f0037008080fb008d
:104f5000a25990008301fb00838f500007003200ac
:104f6000d2019000220a9000848f5100030031008a
:104f700080597800530198000400370080007800c1
:104f800002007800f401070080007800010078003a
:104f9000000006000000060080112100000006004d
:104fa000889fbe000004be000000eb000800e00087
:104fb00018003200180090000058a3000d003200c5
:104fc000d800900068009000808f500009003600e3
:104fd000b80990000001eb0082007800080078001a
:104fe00003000100d80090000080eb000100e00009
:104ff000080032000000eb00200c980060049800cc
:10500000500498000900e000020032001800780007
:10501000f5ed07004f04be0000000600889fbe00ab
:105020000004be000000eb000800e0002500320094
:10503000180090000058a30011003200d800900022
:1050400068009000808f500009003600b809900079
:105050000001eb00820078000800780003000100e6
:10506000d80090000080eb000100e0001500320045
:105070000000eb00200c9800600498005004980099
:10508000780a900008109000800f5200060031004e
:105090000002520011002000cfa2de00612bb900f7
:1050a00018007800330107000000eb00001498009e
:1050b000700c98000900e00002003200180078002f
:1050c000c9ed07004f04be00000006000000060006
:1050d00000000500fdff0700608f80008000eb00ee
:1050e00063010700608f80008000eb006001070013
:1050f000608f80008000eb005d0137000800fa003f
:10510000889fbe008a1f780000047800010578009f
:105110008204780038009000a80090009abf9f0099
:105120000001780002f0a7000201ea000201ea0093
:105130004f11de0002815400a2bf9f00b1bf9f004b
:10514000c0bf9f0022002000ee80570018007800aa
:10515000260107000000e00006003c00f8006000a7
:105160000130a200180190008280700011049800a4
:10517000110037002fb99700820f50000e00360043
:10518000a8009000710c98000200500000804000c0
:1051900000149800380090000000e0000700320082
:1051a0000905450001007800b040780071fd9f00be
:1051b000700c980001003700800478000900780026
:1051c0004f0578004f04be000080fa000000060082
:1051d000881f78000004780018007800e5000700b8
:1051e0000203be000002be00f0ff2f00f1ff2f00ff
:1051f0000001be00e00f5200e08f5a00e00f5b009c
:10520000e08f5b0005003500180090000030a10021
:10521000100498006000b8006011b8004f047800d6
:10522000000006000800fa00889fbe008a1f780070
:105230000004be00180090000058a3001b003200bc
:10524000d800900068009000808f50001300360056
:10525000b80990000001eb00820078000800780097
:1052600094bf9f00a5bf9f00b6bf9f00c7bf9f0010
:105270000300010058059000f0ff2f00f1ff2f0000
:105280000001be001fba9700afba97003fbb97005e
:10529000cfbb97000a00e000060032000000eb00e0
:1052a000200c980060049800500498000800be008c
:1052b000c7ff07004f0578004f04be000080fa00ca
:1052c000000006000800fa00889fbe008a1f7800d0
:1052d0000004be00e18f540008003a0088109000de
:1052e0007808900000805000cf80de00000252005d
:1052f00081825a0001035b0081835b0018009000eb
:105300000058a3001b003200d800900068009000f5
:10531000808f500013003600b80990000001eb00a8
:10532000820078000800780094bf9f00a5bf9f000e
:10533000b6bf9f00c7bf9f00030001005805900043
:10534000f0ff2f00f1ff2f000001be001fba9700f1
:10535000afba97003fbb9700cfbb97000a00e000b1
:10536000150032000000eb00200c9800600498004b
:10537000500498000800be0095ff07000203be001d
:105380000002be00f0ff2f00f1ff2f000001be0061
:10539000e00f5200e08f5a00e00f5b00e08f5b00ef
:1053a000050035000000eb0000149800700c980018
:1053b0006000b8006011b8004f0578004f04be00cf
:1053c0000080fa00000006000000060040152100e1
:1053d00000000600881f78000004780048609000f4
:1053e0008040e90000c0700040649800d800900040
:1053f00068009000808f500005003600b8099000ca
:105400000001eb0082007800080078000300010032
:105410000000eb00200c98006004980050049800f5
:10542000980090000118a300030032000140a00082
:1054300011049800080037002801900038009000ff
:105440000000410000149800700c98000000eb0070
:105450000138a300010032000080eb004f04780007
:10546000000006001bff37000200fa00889fbe0004
:105470000000e00001003a00100020000004e800f5
:105480000800a100408f80000000e8000000a1009b
:10549000408f8800000020000000e0000f00320074
:1054a000e10f540006003600e20f440005003a0008
:1054b000c0002000508f88000000eb002a00370059
:1054c0002800200008007800cdea0700290020000d
:1054d0000000e00024003a00010037008004eb00e7
:1054e000408f8000318f800000805000800f54007a
:1054f0001300360008804400d0bf9f00668057002c
:10550000cc000700800078000000eb000100e00004
:10551000150032000100e8000000a100318f80007a
:10552000810f500001003200408f8800dfb89700e3
:10553000010040000000e8000000a100308f88005a
:10554000418f80000900e000030032000100780074
:105550000818780001003700010078000884440032
:1055600088804000418f88004f04be000080fa0010
:1055700000000600a0fd2f00f1ff2f003200070001
:105580004f89de0082017800000006000200fa0068
:1055900081017800e0ff9f00930090000188a30044
:1055a00005003200d3009000805878000080fb0096
:1055b000d10198000a003700120020008f80e90016
:1055c000030078005e000700800078000080eb0098
:1055d0000100e00002003200eff897000180fb00bc
:1055e0000080fa000000060051fe3700889fbe00d0
:1055f0008a9fbe008c1f7800000678008205780024
:10560000010478008004eb000905780007003700ea
:1056100018019000980078000c0078002eec07002c
:10562000808444000a05e800640444008b0f5500a0
:10563000f7ff3500090078004f0678004f05be00df
:105640004f04be000000060002002f00f3ff2f00f1
:10565000820f5000838f5800040036000000ea00db
:10566000508f88000080eb008080eb000000060077
:105670008001eb000000e0000500320070019000a6
:105680000200e00002003200020001008001780008
:1056900003007800000006006000b8006011b80048
:1056a00000000600881f7800c00120006eff070080
:1056b000000478000800e0000a003200c201200067
:1056c0008000eb0008007800eff807004078220027
:1056d000300c980020912200400c980000c0eb0094
:1056e000205c9800080078004f0478000000060055
:1056f000adfd37004009900002040100d001900088
